{
    "_format": "hh-sol-artifact-1",
    "contractName": "Event",
    "sourceName": "contracts/Event.sol",
    "abi": [
        {
            "inputs": [
                {
                    "internalType": "address",
                    "name": "_organiser",
                    "type": "address"
                },
                {
                    "internalType": "address",
                    "name": "_userRegistry",
                    "type": "address"
                },
                {
                    "internalType": "uint256",
                    "name": "_commissionRate",
                    "type": "uint256"
                },
                {
                    "internalType": "string",
                    "name": "_eventName",
                    "type": "string"
                }
            ],
            "stateMutability": "nonpayable",
            "type": "constructor"
        },
        {
            "anonymous": false,
            "inputs": [
                {
                    "indexed": false,
                    "internalType": "address",
                    "name": "ticketContract",
                    "type": "address"
                },
                {
                    "indexed": false,
                    "internalType": "string",
                    "name": "categoryName",
                    "type": "string"
                }
            ],
            "name": "TicketCategoryCreated",
            "type": "event"
        },
        {
            "inputs": [
                {
                    "internalType": "uint256",
                    "name": "categoryIndex",
                    "type": "uint256"
                }
            ],
            "name": "buyTicket",
            "outputs": [],
            "stateMutability": "payable",
            "type": "function"
        },
        {
            "inputs": [],
            "name": "commissionRate",
            "outputs": [
                {
                    "internalType": "uint256",
                    "name": "",
                    "type": "uint256"
                }
            ],
            "stateMutability": "view",
            "type": "function"
        },
        {
            "inputs": [
                {
                    "internalType": "string",
                    "name": "name",
                    "type": "string"
                },
                {
                    "internalType": "string",
                    "name": "symbol",
                    "type": "string"
                },
                {
                    "internalType": "uint256",
                    "name": "totalSupply",
                    "type": "uint256"
                },
                {
                    "internalType": "uint256",
                    "name": "basePrice",
                    "type": "uint256"
                }
            ],
            "name": "createTicketCategory",
            "outputs": [],
            "stateMutability": "nonpayable",
            "type": "function"
        },
        {
            "inputs": [],
            "name": "eventName",
            "outputs": [
                {
                    "internalType": "string",
                    "name": "",
                    "type": "string"
                }
            ],
            "stateMutability": "view",
            "type": "function"
        },
        {
            "inputs": [],
            "name": "organiser",
            "outputs": [
                {
                    "internalType": "address",
                    "name": "",
                    "type": "address"
                }
            ],
            "stateMutability": "view",
            "type": "function"
        },
        {
            "inputs": [
                {
                    "internalType": "uint256",
                    "name": "",
                    "type": "uint256"
                }
            ],
            "name": "ticketCategories",
            "outputs": [
                {
                    "internalType": "contract Ticket",
                    "name": "",
                    "type": "address"
                }
            ],
            "stateMutability": "view",
            "type": "function"
        },
        {
            "inputs": [],
            "name": "userRegistry",
            "outputs": [
                {
                    "internalType": "contract UserRegistry",
                    "name": "",
                    "type": "address"
                }
            ],
            "stateMutability": "view",
            "type": "function"
        }
    ],
    "bytecode": "0x60c060405234801561001057600080fd5b506040516150bd3803806150bd833981810160405281019061003291906102c3565b8373ffffffffffffffffffffffffffffffffffffffff1660808173ffffffffffffffffffffffffffffffffffffffff16815250508273ffffffffffffffffffffffffffffffffffffffff1660a08173ffffffffffffffffffffffffffffffffffffffff16815250508160008190555080600190816100b0919061055d565b505050505061062f565b6000604051905090565b600080fd5b600080fd5b600073ffffffffffffffffffffffffffffffffffffffff82169050919050565b60006100f9826100ce565b9050919050565b610109816100ee565b811461011457600080fd5b50565b60008151905061012681610100565b92915050565b6000819050919050565b61013f8161012c565b811461014a57600080fd5b50565b60008151905061015c81610136565b92915050565b600080fd5b600080fd5b6000601f19601f8301169050919050565b7f4e487b7100000000000000000000000000000000000000000000000000000000600052604160045260246000fd5b6101b58261016c565b810181811067ffffffffffffffff821117156101d4576101d361017d565b5b80604052505050565b60006101e76100ba565b90506101f382826101ac565b919050565b600067ffffffffffffffff8211156102135761021261017d565b5b61021c8261016c565b9050602081019050919050565b60005b8381101561024757808201518184015260208101905061022c565b60008484015250505050565b6000610266610261846101f8565b6101dd565b90508281526020810184848401111561028257610281610167565b5b61028d848285610229565b509392505050565b600082601f8301126102aa576102a9610162565b5b81516102ba848260208601610253565b91505092915050565b600080600080608085870312156102dd576102dc6100c4565b5b60006102eb87828801610117565b94505060206102fc87828801610117565b935050604061030d8782880161014d565b925050606085015167ffffffffffffffff81111561032e5761032d6100c9565b5b61033a87828801610295565b91505092959194509250565b600081519050919050565b7f4e487b7100000000000000000000000000000000000000000000000000000000600052602260045260246000fd5b6000600282049050600182168061039857607f821691505b6020821081036103ab576103aa610351565b5b50919050565b60008190508160005260206000209050919050565b60006020601f8301049050919050565b600082821b905092915050565b6000600883026104137fffffffffffffffffffffffffffffffffffffffffffffffffffffffffffffffff826103d6565b61041d86836103d6565b95508019841693508086168417925050509392505050565b6000819050919050565b600061045a6104556104508461012c565b610435565b61012c565b9050919050565b6000819050919050565b6104748361043f565b61048861048082610461565b8484546103e3565b825550505050565b600090565b61049d610490565b6104a881848461046b565b505050565b5b818110156104cc576104c1600082610495565b6001810190506104ae565b5050565b601f821115610511576104e2816103b1565b6104eb846103c6565b810160208510156104fa578190505b61050e610506856103c6565b8301826104ad565b50505b505050565b600082821c905092915050565b600061053460001984600802610516565b1980831691505092915050565b600061054d8383610523565b9150826002028217905092915050565b61056682610346565b67ffffffffffffffff81111561057f5761057e61017d565b5b6105898254610380565b6105948282856104d0565b600060209050601f8311600181146105c757600084156105b5578287015190505b6105bf8582610541565b865550610627565b601f1984166105d5866103b1565b60005b828110156105fd578489015182556001820191506020850194506020810190506105d8565b8683101561061a5784890151610616601f891682610523565b8355505b6001600288020188555050505b505050505050565b60805160a051614a4d610670600039600081816101a5015281816101cf015261052c0152600081816103a201528181610493015261054d0152614a4d6000f3fe6080604052600436106100705760003560e01c80637e5374861161004e5780637e537486146100e75780638043c9c014610112578063cef2646d1461013d578063f4e6758b1461017a57610070565b80635c7460d6146100755780635ea1d6f8146100a057806367dd74ca146100cb575b600080fd5b34801561008157600080fd5b5061008a6101a3565b60405161009791906106dc565b60405180910390f35b3480156100ac57600080fd5b506100b56101c7565b6040516100c29190610710565b60405180910390f35b6100e560048036038101906100e09190610761565b6101cd565b005b3480156100f357600080fd5b506100fc6103a0565b60405161010991906107af565b60405180910390f35b34801561011e57600080fd5b506101276103c4565b604051610134919061085a565b60405180910390f35b34801561014957600080fd5b50610164600480360381019061015f9190610761565b610452565b604051610171919061089d565b60405180910390f35b34801561018657600080fd5b506101a1600480360381019061019c919061091d565b610491565b005b7f000000000000000000000000000000000000000000000000000000000000000081565b60005481565b7f000000000000000000000000000000000000000000000000000000000000000073ffffffffffffffffffffffffffffffffffffffff1663c3c5a547336040518263ffffffff1660e01b815260040161022691906107af565b602060405180830381865afa158015610243573d6000803e3d6000fd5b505050506040513d601f19601f8201168201806040525081019061026791906109fc565b6102a6576040517f08c379a000000000000000000000000000000000000000000000000000000000815260040161029d90610a75565b60405180910390fd5b60028054905081106102ed576040517f08c379a00000000000000000000000000000000000000000000000000000000081526004016102e490610ae1565b60405180910390fd5b60006002828154811061030357610302610b01565b5b9060005260206000200160009054906101000a900473ffffffffffffffffffffffffffffffffffffffff1690508073ffffffffffffffffffffffffffffffffffffffff1663a5f8cdbb34336040518363ffffffff1660e01b815260040161036a91906107af565b6000604051808303818588803b15801561038357600080fd5b505af1158015610397573d6000803e3d6000fd5b50505050505050565b7f000000000000000000000000000000000000000000000000000000000000000081565b600180546103d190610b5f565b80601f01602080910402602001604051908101604052809291908181526020018280546103fd90610b5f565b801561044a5780601f1061041f5761010080835404028352916020019161044a565b820191906000526020600020905b81548152906001019060200180831161042d57829003601f168201915b505050505081565b6002818154811061046257600080fd5b906000526020600020016000915054906101000a900473ffffffffffffffffffffffffffffffffffffffff1681565b7f000000000000000000000000000000000000000000000000000000000000000073ffffffffffffffffffffffffffffffffffffffff163373ffffffffffffffffffffffffffffffffffffffff161461051f576040517f08c379a000000000000000000000000000000000000000000000000000000000815260040161051690610bdc565b60405180910390fd5b60008686868686866000547f00000000000000000000000000000000000000000000000000000000000000007f000000000000000000000000000000000000000000000000000000000000000060405161057890610650565b61058a99989796959493929190610c38565b604051809103906000f0801580156105a6573d6000803e3d6000fd5b5090506002819080600181540180825580915050600190039060005260206000200160009091909190916101000a81548173ffffffffffffffffffffffffffffffffffffffff021916908373ffffffffffffffffffffffffffffffffffffffff1602179055507f5f6e8c812ff7dbda17cf30c86364db572cf5e4171e5f6959b631d27d44cc1aef81888860405161063f93929190610cb9565b60405180910390a150505050505050565b613d2c80610cec83390190565b600073ffffffffffffffffffffffffffffffffffffffff82169050919050565b6000819050919050565b60006106a261069d6106988461065d565b61067d565b61065d565b9050919050565b60006106b482610687565b9050919050565b60006106c6826106a9565b9050919050565b6106d6816106bb565b82525050565b60006020820190506106f160008301846106cd565b92915050565b6000819050919050565b61070a816106f7565b82525050565b60006020820190506107256000830184610701565b92915050565b600080fd5b600080fd5b61073e816106f7565b811461074957600080fd5b50565b60008135905061075b81610735565b92915050565b6000602082840312156107775761077661072b565b5b60006107858482850161074c565b91505092915050565b60006107998261065d565b9050919050565b6107a98161078e565b82525050565b60006020820190506107c460008301846107a0565b92915050565b600081519050919050565b600082825260208201905092915050565b60005b838110156108045780820151818401526020810190506107e9565b60008484015250505050565b6000601f19601f8301169050919050565b600061082c826107ca565b61083681856107d5565b93506108468185602086016107e6565b61084f81610810565b840191505092915050565b600060208201905081810360008301526108748184610821565b905092915050565b6000610887826106a9565b9050919050565b6108978161087c565b82525050565b60006020820190506108b2600083018461088e565b92915050565b600080fd5b600080fd5b600080fd5b60008083601f8401126108dd576108dc6108b8565b5b8235905067ffffffffffffffff8111156108fa576108f96108bd565b5b602083019150836001820283011115610916576109156108c2565b5b9250929050565b6000806000806000806080878903121561093a5761093961072b565b5b600087013567ffffffffffffffff81111561095857610957610730565b5b61096489828a016108c7565b9650965050602087013567ffffffffffffffff81111561098757610986610730565b5b61099389828a016108c7565b945094505060406109a689828a0161074c565b92505060606109b789828a0161074c565b9150509295509295509295565b60008115159050919050565b6109d9816109c4565b81146109e457600080fd5b50565b6000815190506109f6816109d0565b92915050565b600060208284031215610a1257610a1161072b565b5b6000610a20848285016109e7565b91505092915050565b7f556e726567697374657265642075736572000000000000000000000000000000600082015250565b6000610a5f6011836107d5565b9150610a6a82610a29565b602082019050919050565b60006020820190508181036000830152610a8e81610a52565b9050919050565b7f496e76616c69642063617465676f727920696e64657800000000000000000000600082015250565b6000610acb6016836107d5565b9150610ad682610a95565b602082019050919050565b60006020820190508181036000830152610afa81610abe565b9050919050565b7f4e487b7100000000000000000000000000000000000000000000000000000000600052603260045260246000fd5b7f4e487b7100000000000000000000000000000000000000000000000000000000600052602260045260246000fd5b60006002820490506001821680610b7757607f821691505b602082108103610b8a57610b89610b30565b5b50919050565b7f556e617574686f72697365640000000000000000000000000000000000000000600082015250565b6000610bc6600c836107d5565b9150610bd182610b90565b602082019050919050565b60006020820190508181036000830152610bf581610bb9565b9050919050565b82818337600083830152505050565b6000610c1783856107d5565b9350610c24838584610bfc565b610c2d83610810565b840190509392505050565b600060e0820190508181036000830152610c53818b8d610c0b565b90508181036020830152610c6881898b610c0b565b9050610c776040830188610701565b610c846060830187610701565b610c916080830186610701565b610c9e60a08301856107a0565b610cab60c08301846107a0565b9a9950505050505050505050565b6000604082019050610cce60008301866107a0565b8181036020830152610ce1818486610c0b565b905094935050505056fe61010060405234801561001157600080fd5b50604051613d2c380380613d2c833981810160405281019061003391906102eb565b8686816000908161004491906105dc565b50806001908161005491906105dc565b5050508460e081815250508360c0818152505082600a819055508173ffffffffffffffffffffffffffffffffffffffff1660808173ffffffffffffffffffffffffffffffffffffffff16815250508073ffffffffffffffffffffffffffffffffffffffff1660a08173ffffffffffffffffffffffffffffffffffffffff1681525050505050505050506106ae565b6000604051905090565b600080fd5b600080fd5b600080fd5b600080fd5b6000601f19601f8301169050919050565b7f4e487b7100000000000000000000000000000000000000000000000000000000600052604160045260246000fd5b61014982610100565b810181811067ffffffffffffffff8211171561016857610167610111565b5b80604052505050565b600061017b6100e2565b90506101878282610140565b919050565b600067ffffffffffffffff8211156101a7576101a6610111565b5b6101b082610100565b9050602081019050919050565b60005b838110156101db5780820151818401526020810190506101c0565b60008484015250505050565b60006101fa6101f58461018c565b610171565b905082815260208101848484011115610216576102156100fb565b5b6102218482856101bd565b509392505050565b600082601f83011261023e5761023d6100f6565b5b815161024e8482602086016101e7565b91505092915050565b6000819050919050565b61026a81610257565b811461027557600080fd5b50565b60008151905061028781610261565b92915050565b600073ffffffffffffffffffffffffffffffffffffffff82169050919050565b60006102b88261028d565b9050919050565b6102c8816102ad565b81146102d357600080fd5b50565b6000815190506102e5816102bf565b92915050565b600080600080600080600060e0888a03121561030a576103096100ec565b5b600088015167ffffffffffffffff811115610328576103276100f1565b5b6103348a828b01610229565b975050602088015167ffffffffffffffff811115610355576103546100f1565b5b6103618a828b01610229565b96505060406103728a828b01610278565b95505060606103838a828b01610278565b94505060806103948a828b01610278565b93505060a06103a58a828b016102d6565b92505060c06103b68a828b016102d6565b91505092959891949750929550565b600081519050919050565b7f4e487b7100000000000000000000000000000000000000000000000000000000600052602260045260246000fd5b6000600282049050600182168061041757607f821691505b60208210810361042a576104296103d0565b5b50919050565b60008190508160005260206000209050919050565b60006020601f8301049050919050565b600082821b905092915050565b6000600883026104927fffffffffffffffffffffffffffffffffffffffffffffffffffffffffffffffff82610455565b61049c8683610455565b95508019841693508086168417925050509392505050565b6000819050919050565b60006104d96104d46104cf84610257565b6104b4565b610257565b9050919050565b6000819050919050565b6104f3836104be565b6105076104ff826104e0565b848454610462565b825550505050565b600090565b61051c61050f565b6105278184846104ea565b505050565b5b8181101561054b57610540600082610514565b60018101905061052d565b5050565b601f8211156105905761056181610430565b61056a84610445565b81016020851015610579578190505b61058d61058585610445565b83018261052c565b50505b505050565b600082821c905092915050565b60006105b360001984600802610595565b1980831691505092915050565b60006105cc83836105a2565b9150826002028217905092915050565b6105e5826103c5565b67ffffffffffffffff8111156105fe576105fd610111565b5b61060882546103ff565b61061382828561054f565b600060209050601f8311600181146106465760008415610634578287015190505b61063e85826105c0565b8655506106a6565b601f19841661065486610430565b60005b8281101561067c57848901518255600182019150602085019450602081019050610657565b868310156106995784890151610695601f8916826105a2565b8355505b6001600288020188555050505b505050505050565b60805160a05160c05160e0516136306106fc600039600081816110b801526114880152600081816111240152818161115901526113fb01526000610f3801526000610e4201526136306000f3fe6080604052600436106101d85760003560e01c80635ea1d6f811610102578063a4bfd0cc11610095578063c7876ea411610064578063c7876ea414610716578063c87b56dd14610741578063d5abeb011461077e578063e985e9c5146107a9576101d8565b8063a4bfd0cc14610657578063a5f8cdbb14610694578063ad093409146106b0578063b88d4fde146106ed576101d8565b80639106d7ba116100d15780639106d7ba146105ad57806395d89b41146105d8578063a22cb46514610603578063a2309ff81461062c576101d8565b80635ea1d6f8146104dd5780636352211e1461050857806370a08231146105455780637e53748614610582576101d8565b806324c141601161017a57806342842e0e1161014957806342842e0e146104235780634cf3cc7b1461044c5780634f6ccce7146104755780635c7460d6146104b2576101d8565b806324c141601461033c5780632f745c591461037c578063394803fd146103b95780633b1dbfcc146103f8576101d8565b8063095ea7b3116101b6578063095ea7b31461028257806316ae917b146102ab57806318160ddd146102e857806323b872dd14610313576101d8565b806301ffc9a7146101dd57806306fdde031461021a578063081812fc14610245575b600080fd5b3480156101e957600080fd5b5061020460048036038101906101ff9190612906565b6107e6565b604051610211919061294e565b60405180910390f35b34801561022657600080fd5b5061022f610860565b60405161023c91906129f9565b60405180910390f35b34801561025157600080fd5b5061026c60048036038101906102679190612a51565b6108f2565b6040516102799190612abf565b60405180910390f35b34801561028e57600080fd5b506102a960048036038101906102a49190612b06565b61090e565b005b3480156102b757600080fd5b506102d260048036038101906102cd9190612a51565b610924565b6040516102df9190612b55565b60405180910390f35b3480156102f457600080fd5b506102fd610994565b60405161030a9190612b55565b60405180910390f35b34801561031f57600080fd5b5061033a60048036038101906103359190612b70565b6109a1565b005b34801561034857600080fd5b50610363600480360381019061035e9190612a51565b610aa3565b6040516103739493929190612bc3565b60405180910390f35b34801561038857600080fd5b506103a3600480360381019061039e9190612b06565b610bae565b6040516103b09190612b55565b60405180910390f35b3480156103c557600080fd5b506103e060048036038101906103db9190612a51565b610c57565b6040516103ef93929190612c0f565b60405180910390f35b34801561040457600080fd5b5061040d610ca1565b60405161041a9190612b55565b60405180910390f35b34801561042f57600080fd5b5061044a60048036038101906104459190612b70565b610ca7565b005b34801561045857600080fd5b50610473600480360381019061046e9190612b70565b610cc7565b005b34801561048157600080fd5b5061049c60048036038101906104979190612a51565b610dca565b6040516104a99190612b55565b60405180910390f35b3480156104be57600080fd5b506104c7610e40565b6040516104d49190612ca5565b60405180910390f35b3480156104e957600080fd5b506104f2610e64565b6040516104ff9190612b55565b60405180910390f35b34801561051457600080fd5b5061052f600480360381019061052a9190612a51565b610e6a565b60405161053c9190612abf565b60405180910390f35b34801561055157600080fd5b5061056c60048036038101906105679190612cc0565b610e7c565b6040516105799190612b55565b60405180910390f35b34801561058e57600080fd5b50610597610f36565b6040516105a49190612abf565b60405180910390f35b3480156105b957600080fd5b506105c2610f5a565b6040516105cf9190612b55565b60405180910390f35b3480156105e457600080fd5b506105ed610f60565b6040516105fa91906129f9565b60405180910390f35b34801561060f57600080fd5b5061062a60048036038101906106259190612d19565b610ff2565b005b34801561063857600080fd5b50610641611008565b60405161064e9190612b55565b60405180910390f35b34801561066357600080fd5b5061067e60048036038101906106799190612cc0565b61100e565b60405161068b9190612e17565b60405180910390f35b6106ae60048036038101906106a99190612cc0565b6110b6565b005b3480156106bc57600080fd5b506106d760048036038101906106d29190612a51565b611344565b6040516106e49190612abf565b60405180910390f35b3480156106f957600080fd5b50610714600480360381019061070f9190612f6e565b6113d4565b005b34801561072257600080fd5b5061072b6113f9565b6040516107389190612b55565b60405180910390f35b34801561074d57600080fd5b5061076860048036038101906107639190612a51565b61141d565b60405161077591906129f9565b60405180910390f35b34801561078a57600080fd5b50610793611486565b6040516107a09190612b55565b60405180910390f35b3480156107b557600080fd5b506107d060048036038101906107cb9190612ff1565b6114aa565b6040516107dd919061294e565b60405180910390f35b60007f780e9d63000000000000000000000000000000000000000000000000000000007bffffffffffffffffffffffffffffffffffffffffffffffffffffffff1916827bffffffffffffffffffffffffffffffffffffffffffffffffffffffff1916148061085957506108588261153e565b5b9050919050565b60606000805461086f90613060565b80601f016020809104026020016040519081016040528092919081815260200182805461089b90613060565b80156108e85780601f106108bd576101008083540402835291602001916108e8565b820191906000526020600020905b8154815290600101906020018083116108cb57829003601f168201915b5050505050905090565b60006108fd82611620565b50610907826116a8565b9050919050565b610920828261091b6116e5565b6116ed565b5050565b600080821180156109375750600b548211155b610976576040517f08c379a000000000000000000000000000000000000000000000000000000000815260040161096d906130dd565b60405180910390fd5b600d6000838152602001908152602001600020600101549050919050565b6000600880549050905090565b600073ffffffffffffffffffffffffffffffffffffffff168273ffffffffffffffffffffffffffffffffffffffff1603610a135760006040517f64a0ae92000000000000000000000000000000000000000000000000000000008152600401610a0a9190612abf565b60405180910390fd5b6000610a278383610a226116e5565b6116ff565b90508373ffffffffffffffffffffffffffffffffffffffff168173ffffffffffffffffffffffffffffffffffffffff1614610a9d578382826040517f64283d7b000000000000000000000000000000000000000000000000000000008152600401610a94939291906130fd565b60405180910390fd5b50505050565b60008060006060600085118015610abc5750600b548511155b610afb576040517f08c379a0000000000000000000000000000000000000000000000000000000008152600401610af2906130dd565b60405180910390fd5b6000600d60008781526020019081526020016000206040518060600160405290816000820160009054906101000a900473ffffffffffffffffffffffffffffffffffffffff1673ffffffffffffffffffffffffffffffffffffffff1673ffffffffffffffffffffffffffffffffffffffff168152602001600182015481526020016002820154815250509050806020015181600001518260400151610b9e610860565b9450945094509450509193509193565b6000610bb983610e7c565b8210610bfe5782826040517fa57d13dc000000000000000000000000000000000000000000000000000000008152600401610bf5929190613134565b60405180910390fd5b600660008473ffffffffffffffffffffffffffffffffffffffff1673ffffffffffffffffffffffffffffffffffffffff168152602001908152602001600020600083815260200190815260200160002054905092915050565b600d6020528060005260406000206000915090508060000160009054906101000a900473ffffffffffffffffffffffffffffffffffffffff16908060010154908060020154905083565b61271081565b610cc2838383604051806020016040528060008152506113d4565b505050565b8273ffffffffffffffffffffffffffffffffffffffff16610ce782610e6a565b73ffffffffffffffffffffffffffffffffffffffff1614610d3d576040517f08c379a0000000000000000000000000000000000000000000000000000000008152600401610d34906131a9565b60405180910390fd5b42600d600083815260200190815260200160002060020181905550610d738383836040518060200160405280600081525061181c565b807fd59a36d8310ffb140214be490baf3fe8961f859a17199ec1bf9015c8b73400118484600d600086815260200190815260200160002060010154604051610dbd939291906131c9565b60405180910390a2505050565b6000610dd4610994565b8210610e1a576000826040517fa57d13dc000000000000000000000000000000000000000000000000000000008152600401610e11929190613134565b60405180910390fd5b60088281548110610e2e57610e2d613200565b5b90600052602060002001549050919050565b7f000000000000000000000000000000000000000000000000000000000000000081565b600a5481565b6000610e7582611620565b9050919050565b60008073ffffffffffffffffffffffffffffffffffffffff168273ffffffffffffffffffffffffffffffffffffffff1603610eef5760006040517f89c62b64000000000000000000000000000000000000000000000000000000008152600401610ee69190612abf565b60405180910390fd5b600360008373ffffffffffffffffffffffffffffffffffffffff1673ffffffffffffffffffffffffffffffffffffffff168152602001908152602001600020549050919050565b7f000000000000000000000000000000000000000000000000000000000000000081565b600c5481565b606060018054610f6f90613060565b80601f0160208091040260200160405190810160405280929190818152602001828054610f9b90613060565b8015610fe85780601f10610fbd57610100808354040283529160200191610fe8565b820191906000526020600020905b815481529060010190602001808311610fcb57829003601f168201915b5050505050905090565b611004610ffd6116e5565b8383611841565b5050565b600b5481565b6060600061101b83610e7c565b905060008167ffffffffffffffff81111561103957611038612e43565b5b6040519080825280602002602001820160405280156110675781602001602082028036833780820191505090505b50905060005b828110156110ab5761107f8582610bae565b82828151811061109257611091613200565b5b602002602001018181525050808060010191505061106d565b508092505050919050565b7f0000000000000000000000000000000000000000000000000000000000000000600c541061111a576040517f08c379a00000000000000000000000000000000000000000000000000000000081526004016111119061327b565b60405180910390fd5b6000612710600a547f000000000000000000000000000000000000000000000000000000000000000061114d91906132ca565b611157919061333b565b7f0000000000000000000000000000000000000000000000000000000000000000611182919061336c565b9050803410156111c7576040517f08c379a00000000000000000000000000000000000000000000000000000000081526004016111be906133ec565b60405180910390fd5b600b60008154809291906111da9061340c565b9190505550600c60008154809291906111f29061340c565b91905055506000600b54905061120883826119b0565b60405180606001604052808473ffffffffffffffffffffffffffffffffffffffff16815260200183815260200142815250600d600083815260200190815260200160002060008201518160000160006101000a81548173ffffffffffffffffffffffffffffffffffffffff021916908373ffffffffffffffffffffffffffffffffffffffff160217905550602082015181600101556040820151816002015590505081341115611305578273ffffffffffffffffffffffffffffffffffffffff166108fc83346112d89190613454565b9081150290604051600060405180830381858888f19350505050158015611303573d6000803e3d6000fd5b505b807fdbaaf4c87ce30816c961a81d110622a3227ede77953d4383d514ff88ab2e0fd38484604051611337929190613134565b60405180910390a2505050565b600080821180156113575750600b548211155b611396576040517f08c379a000000000000000000000000000000000000000000000000000000000815260040161138d906130dd565b60405180910390fd5b600d600083815260200190815260200160002060000160009054906101000a900473ffffffffffffffffffffffffffffffffffffffff169050919050565b6113df8484846109a1565b6113f36113ea6116e5565b85858585611aa9565b50505050565b7f000000000000000000000000000000000000000000000000000000000000000081565b606061142882611620565b506000611433611c5a565b90506000815111611453576040518060200160405280600081525061147e565b8061145d84611c71565b60405160200161146e9291906134c4565b6040516020818303038152906040525b915050919050565b7f000000000000000000000000000000000000000000000000000000000000000081565b6000600560008473ffffffffffffffffffffffffffffffffffffffff1673ffffffffffffffffffffffffffffffffffffffff16815260200190815260200160002060008373ffffffffffffffffffffffffffffffffffffffff1673ffffffffffffffffffffffffffffffffffffffff16815260200190815260200160002060009054906101000a900460ff16905092915050565b60007f80ac58cd000000000000000000000000000000000000000000000000000000007bffffffffffffffffffffffffffffffffffffffffffffffffffffffff1916827bffffffffffffffffffffffffffffffffffffffffffffffffffffffff1916148061160957507f5b5e139f000000000000000000000000000000000000000000000000000000007bffffffffffffffffffffffffffffffffffffffffffffffffffffffff1916827bffffffffffffffffffffffffffffffffffffffffffffffffffffffff1916145b80611619575061161882611d3f565b5b9050919050565b60008061162c83611da9565b9050600073ffffffffffffffffffffffffffffffffffffffff168173ffffffffffffffffffffffffffffffffffffffff160361169f57826040517f7e2732890000000000000000000000000000000000000000000000000000000081526004016116969190612b55565b60405180910390fd5b80915050919050565b60006004600083815260200190815260200160002060009054906101000a900473ffffffffffffffffffffffffffffffffffffffff169050919050565b600033905090565b6116fa8383836001611de6565b505050565b60008061170d858585611fab565b9050600073ffffffffffffffffffffffffffffffffffffffff168173ffffffffffffffffffffffffffffffffffffffff16036117515761174c846121c5565b611790565b8473ffffffffffffffffffffffffffffffffffffffff168173ffffffffffffffffffffffffffffffffffffffff161461178f5761178e818561220e565b5b5b600073ffffffffffffffffffffffffffffffffffffffff168573ffffffffffffffffffffffffffffffffffffffff16036117d2576117cd846122f9565b611811565b8473ffffffffffffffffffffffffffffffffffffffff168173ffffffffffffffffffffffffffffffffffffffff16146118105761180f85856123ca565b5b5b809150509392505050565b611827848484612455565b61183b6118326116e5565b85858585611aa9565b50505050565b600073ffffffffffffffffffffffffffffffffffffffff168273ffffffffffffffffffffffffffffffffffffffff16036118b257816040517f5b08ba180000000000000000000000000000000000000000000000000000000081526004016118a99190612abf565b60405180910390fd5b80600560008573ffffffffffffffffffffffffffffffffffffffff1673ffffffffffffffffffffffffffffffffffffffff16815260200190815260200160002060008473ffffffffffffffffffffffffffffffffffffffff1673ffffffffffffffffffffffffffffffffffffffff16815260200190815260200160002060006101000a81548160ff0219169083151502179055508173ffffffffffffffffffffffffffffffffffffffff168373ffffffffffffffffffffffffffffffffffffffff167f17307eab39ab6107e8899845ad3d59bd9653f200f220920489ca2b5937696c31836040516119a3919061294e565b60405180910390a3505050565b600073ffffffffffffffffffffffffffffffffffffffff168273ffffffffffffffffffffffffffffffffffffffff1603611a225760006040517f64a0ae92000000000000000000000000000000000000000000000000000000008152600401611a199190612abf565b60405180910390fd5b6000611a30838360006116ff565b9050600073ffffffffffffffffffffffffffffffffffffffff168173ffffffffffffffffffffffffffffffffffffffff1614611aa45760006040517f73c6ac6e000000000000000000000000000000000000000000000000000000008152600401611a9b9190612abf565b60405180910390fd5b505050565b60008373ffffffffffffffffffffffffffffffffffffffff163b1115611c53578273ffffffffffffffffffffffffffffffffffffffff1663150b7a02868685856040518563ffffffff1660e01b8152600401611b08949392919061353d565b6020604051808303816000875af1925050508015611b4457506040513d601f19601f82011682018060405250810190611b41919061359e565b60015b611bc8573d8060008114611b74576040519150601f19603f3d011682016040523d82523d6000602084013e611b79565b606091505b506000815103611bc057836040517f64a0ae92000000000000000000000000000000000000000000000000000000008152600401611bb79190612abf565b60405180910390fd5b805181602001fd5b63150b7a0260e01b7bffffffffffffffffffffffffffffffffffffffffffffffffffffffff1916817bffffffffffffffffffffffffffffffffffffffffffffffffffffffff191614611c5157836040517f64a0ae92000000000000000000000000000000000000000000000000000000008152600401611c489190612abf565b60405180910390fd5b505b5050505050565b606060405180602001604052806000815250905090565b606060006001611c80846125c2565b01905060008167ffffffffffffffff811115611c9f57611c9e612e43565b5b6040519080825280601f01601f191660200182016040528015611cd15781602001600182028036833780820191505090505b509050600082602001820190505b600115611d34578080600190039150507f3031323334353637383961626364656600000000000000000000000000000000600a86061a8153600a8581611d2857611d2761330c565b5b04945060008503611cdf575b819350505050919050565b60007f01ffc9a7000000000000000000000000000000000000000000000000000000007bffffffffffffffffffffffffffffffffffffffffffffffffffffffff1916827bffffffffffffffffffffffffffffffffffffffffffffffffffffffff1916149050919050565b60006002600083815260200190815260200160002060009054906101000a900473ffffffffffffffffffffffffffffffffffffffff169050919050565b8080611e1f5750600073ffffffffffffffffffffffffffffffffffffffff168273ffffffffffffffffffffffffffffffffffffffff1614155b15611f53576000611e2f84611620565b9050600073ffffffffffffffffffffffffffffffffffffffff168373ffffffffffffffffffffffffffffffffffffffff1614158015611e9a57508273ffffffffffffffffffffffffffffffffffffffff168173ffffffffffffffffffffffffffffffffffffffff1614155b8015611ead5750611eab81846114aa565b155b15611eef57826040517fa9fbf51f000000000000000000000000000000000000000000000000000000008152600401611ee69190612abf565b60405180910390fd5b8115611f5157838573ffffffffffffffffffffffffffffffffffffffff168273ffffffffffffffffffffffffffffffffffffffff167f8c5be1e5ebec7d5bd14f71427d1e84f3dd0314c0f7b2291e5b200ac8c7c3b92560405160405180910390a45b505b836004600085815260200190815260200160002060006101000a81548173ffffffffffffffffffffffffffffffffffffffff021916908373ffffffffffffffffffffffffffffffffffffffff16021790555050505050565b600080611fb784611da9565b9050600073ffffffffffffffffffffffffffffffffffffffff168373ffffffffffffffffffffffffffffffffffffffff1614611ff957611ff8818486612715565b5b600073ffffffffffffffffffffffffffffffffffffffff168173ffffffffffffffffffffffffffffffffffffffff161461208a5761203b600085600080611de6565b6001600360008373ffffffffffffffffffffffffffffffffffffffff1673ffffffffffffffffffffffffffffffffffffffff168152602001908152602001600020600082825403925050819055505b600073ffffffffffffffffffffffffffffffffffffffff168573ffffffffffffffffffffffffffffffffffffffff161461210d576001600360008773ffffffffffffffffffffffffffffffffffffffff1673ffffffffffffffffffffffffffffffffffffffff168152602001908152602001600020600082825401925050819055505b846002600086815260200190815260200160002060006101000a81548173ffffffffffffffffffffffffffffffffffffffff021916908373ffffffffffffffffffffffffffffffffffffffff160217905550838573ffffffffffffffffffffffffffffffffffffffff168273ffffffffffffffffffffffffffffffffffffffff167fddf252ad1be2c89b69c2b068fc378daa952ba7f163c4a11628f55a4df523b3ef60405160405180910390a4809150509392505050565b6008805490506009600083815260200190815260200160002081905550600881908060018154018082558091505060019003906000526020600020016000909190919091505550565b600061221983610e7c565b90506000600760008481526020019081526020016000205490506000600660008673ffffffffffffffffffffffffffffffffffffffff1673ffffffffffffffffffffffffffffffffffffffff16815260200190815260200160002090508282146122c55760008160008581526020019081526020016000205490508082600085815260200190815260200160002081905550826007600083815260200190815260200160002081905550505b6007600085815260200190815260200160002060009055806000848152602001908152602001600020600090555050505050565b6000600160088054905061230d9190613454565b905060006009600084815260200190815260200160002054905060006008838154811061233d5761233c613200565b5b90600052602060002001549050806008838154811061235f5761235e613200565b5b9060005260206000200181905550816009600083815260200190815260200160002081905550600960008581526020019081526020016000206000905560088054806123ae576123ad6135cb565b5b6001900381819060005260206000200160009055905550505050565b600060016123d784610e7c565b6123e19190613454565b905081600660008573ffffffffffffffffffffffffffffffffffffffff1673ffffffffffffffffffffffffffffffffffffffff168152602001908152602001600020600083815260200190815260200160002081905550806007600084815260200190815260200160002081905550505050565b600073ffffffffffffffffffffffffffffffffffffffff168273ffffffffffffffffffffffffffffffffffffffff16036124c75760006040517f64a0ae920000000000000000000000000000000000000000000000000000000081526004016124be9190612abf565b60405180910390fd5b60006124d5838360006116ff565b9050600073ffffffffffffffffffffffffffffffffffffffff168173ffffffffffffffffffffffffffffffffffffffff160361254857816040517f7e27328900000000000000000000000000000000000000000000000000000000815260040161253f9190612b55565b60405180910390fd5b8373ffffffffffffffffffffffffffffffffffffffff168173ffffffffffffffffffffffffffffffffffffffff16146125bc578382826040517f64283d7b0000000000000000000000000000000000000000000000000000000081526004016125b3939291906130fd565b60405180910390fd5b50505050565b600080600090507a184f03e93ff9f4daa797ed6e38ed64bf6a1f0100000000000000008310612620577a184f03e93ff9f4daa797ed6e38ed64bf6a1f01000000000000000083816126165761261561330c565b5b0492506040810190505b6d04ee2d6d415b85acef8100000000831061265d576d04ee2d6d415b85acef810000000083816126535761265261330c565b5b0492506020810190505b662386f26fc10000831061268c57662386f26fc1000083816126825761268161330c565b5b0492506010810190505b6305f5e10083106126b5576305f5e10083816126ab576126aa61330c565b5b0492506008810190505b61271083106126da5761271083816126d0576126cf61330c565b5b0492506004810190505b606483106126fd57606483816126f3576126f261330c565b5b0492506002810190505b600a831061270c576001810190505b80915050919050565b6127208383836127d9565b6127d457600073ffffffffffffffffffffffffffffffffffffffff168373ffffffffffffffffffffffffffffffffffffffff160361279557806040517f7e27328900000000000000000000000000000000000000000000000000000000815260040161278c9190612b55565b60405180910390fd5b81816040517f177e802f0000000000000000000000000000000000000000000000000000000081526004016127cb929190613134565b60405180910390fd5b505050565b60008073ffffffffffffffffffffffffffffffffffffffff168373ffffffffffffffffffffffffffffffffffffffff161415801561289157508273ffffffffffffffffffffffffffffffffffffffff168473ffffffffffffffffffffffffffffffffffffffff161480612852575061285184846114aa565b5b8061289057508273ffffffffffffffffffffffffffffffffffffffff16612878836116a8565b73ffffffffffffffffffffffffffffffffffffffff16145b5b90509392505050565b6000604051905090565b600080fd5b600080fd5b60007fffffffff0000000000000000000000000000000000000000000000000000000082169050919050565b6128e3816128ae565b81146128ee57600080fd5b50565b600081359050612900816128da565b92915050565b60006020828403121561291c5761291b6128a4565b5b600061292a848285016128f1565b91505092915050565b60008115159050919050565b61294881612933565b82525050565b6000602082019050612963600083018461293f565b92915050565b600081519050919050565b600082825260208201905092915050565b60005b838110156129a3578082015181840152602081019050612988565b60008484015250505050565b6000601f19601f8301169050919050565b60006129cb82612969565b6129d58185612974565b93506129e5818560208601612985565b6129ee816129af565b840191505092915050565b60006020820190508181036000830152612a1381846129c0565b905092915050565b6000819050919050565b612a2e81612a1b565b8114612a3957600080fd5b50565b600081359050612a4b81612a25565b92915050565b600060208284031215612a6757612a666128a4565b5b6000612a7584828501612a3c565b91505092915050565b600073ffffffffffffffffffffffffffffffffffffffff82169050919050565b6000612aa982612a7e565b9050919050565b612ab981612a9e565b82525050565b6000602082019050612ad46000830184612ab0565b92915050565b612ae381612a9e565b8114612aee57600080fd5b50565b600081359050612b0081612ada565b92915050565b60008060408385031215612b1d57612b1c6128a4565b5b6000612b2b85828601612af1565b9250506020612b3c85828601612a3c565b9150509250929050565b612b4f81612a1b565b82525050565b6000602082019050612b6a6000830184612b46565b92915050565b600080600060608486031215612b8957612b886128a4565b5b6000612b9786828701612af1565b9350506020612ba886828701612af1565b9250506040612bb986828701612a3c565b9150509250925092565b6000608082019050612bd86000830187612b46565b612be56020830186612ab0565b612bf26040830185612b46565b8181036060830152612c0481846129c0565b905095945050505050565b6000606082019050612c246000830186612ab0565b612c316020830185612b46565b612c3e6040830184612b46565b949350505050565b6000819050919050565b6000612c6b612c66612c6184612a7e565b612c46565b612a7e565b9050919050565b6000612c7d82612c50565b9050919050565b6000612c8f82612c72565b9050919050565b612c9f81612c84565b82525050565b6000602082019050612cba6000830184612c96565b92915050565b600060208284031215612cd657612cd56128a4565b5b6000612ce484828501612af1565b91505092915050565b612cf681612933565b8114612d0157600080fd5b50565b600081359050612d1381612ced565b92915050565b60008060408385031215612d3057612d2f6128a4565b5b6000612d3e85828601612af1565b9250506020612d4f85828601612d04565b9150509250929050565b600081519050919050565b600082825260208201905092915050565b6000819050602082019050919050565b612d8e81612a1b565b82525050565b6000612da08383612d85565b60208301905092915050565b6000602082019050919050565b6000612dc482612d59565b612dce8185612d64565b9350612dd983612d75565b8060005b83811015612e0a578151612df18882612d94565b9750612dfc83612dac565b925050600181019050612ddd565b5085935050505092915050565b60006020820190508181036000830152612e318184612db9565b905092915050565b600080fd5b600080fd5b7f4e487b7100000000000000000000000000000000000000000000000000000000600052604160045260246000fd5b612e7b826129af565b810181811067ffffffffffffffff82111715612e9a57612e99612e43565b5b80604052505050565b6000612ead61289a565b9050612eb98282612e72565b919050565b600067ffffffffffffffff821115612ed957612ed8612e43565b5b612ee2826129af565b9050602081019050919050565b82818337600083830152505050565b6000612f11612f0c84612ebe565b612ea3565b905082815260208101848484011115612f2d57612f2c612e3e565b5b612f38848285612eef565b509392505050565b600082601f830112612f5557612f54612e39565b5b8135612f65848260208601612efe565b91505092915050565b60008060008060808587031215612f8857612f876128a4565b5b6000612f9687828801612af1565b9450506020612fa787828801612af1565b9350506040612fb887828801612a3c565b925050606085013567ffffffffffffffff811115612fd957612fd86128a9565b5b612fe587828801612f40565b91505092959194509250565b60008060408385031215613008576130076128a4565b5b600061301685828601612af1565b925050602061302785828601612af1565b9150509250929050565b7f4e487b7100000000000000000000000000000000000000000000000000000000600052602260045260246000fd5b6000600282049050600182168061307857607f821691505b60208210810361308b5761308a613031565b5b50919050565b7f5469636b657420646f6573206e6f742065786973740000000000000000000000600082015250565b60006130c7601583612974565b91506130d282613091565b602082019050919050565b600060208201905081810360008301526130f6816130ba565b9050919050565b60006060820190506131126000830186612ab0565b61311f6020830185612b46565b61312c6040830184612ab0565b949350505050565b60006040820190506131496000830185612ab0565b6131566020830184612b46565b9392505050565b7f4e6f7420746865207469636b6574206f776e6572000000000000000000000000600082015250565b6000613193601483612974565b915061319e8261315d565b602082019050919050565b600060208201905081810360008301526131c281613186565b9050919050565b60006060820190506131de6000830186612ab0565b6131eb6020830185612ab0565b6131f86040830184612b46565b949350505050565b7f4e487b7100000000000000000000000000000000000000000000000000000000600052603260045260246000fd5b7f536f6c64206f7574000000000000000000000000000000000000000000000000600082015250565b6000613265600883612974565b91506132708261322f565b602082019050919050565b6000602082019050818103600083015261329481613258565b9050919050565b7f4e487b7100000000000000000000000000000000000000000000000000000000600052601160045260246000fd5b60006132d582612a1b565b91506132e083612a1b565b92508282026132ee81612a1b565b915082820484148315176133055761330461329b565b5b5092915050565b7f4e487b7100000000000000000000000000000000000000000000000000000000600052601260045260246000fd5b600061334682612a1b565b915061335183612a1b565b9250826133615761336061330c565b5b828204905092915050565b600061337782612a1b565b915061338283612a1b565b925082820190508082111561339a5761339961329b565b5b92915050565b7f496e73756666696369656e742066756e64730000000000000000000000000000600082015250565b60006133d6601283612974565b91506133e1826133a0565b602082019050919050565b60006020820190508181036000830152613405816133c9565b9050919050565b600061341782612a1b565b91507fffffffffffffffffffffffffffffffffffffffffffffffffffffffffffffffff82036134495761344861329b565b5b600182019050919050565b600061345f82612a1b565b915061346a83612a1b565b92508282039050818111156134825761348161329b565b5b92915050565b600081905092915050565b600061349e82612969565b6134a88185613488565b93506134b8818560208601612985565b80840191505092915050565b60006134d08285613493565b91506134dc8284613493565b91508190509392505050565b600081519050919050565b600082825260208201905092915050565b600061350f826134e8565b61351981856134f3565b9350613529818560208601612985565b613532816129af565b840191505092915050565b60006080820190506135526000830187612ab0565b61355f6020830186612ab0565b61356c6040830185612b46565b818103606083015261357e8184613504565b905095945050505050565b600081519050613598816128da565b92915050565b6000602082840312156135b4576135b36128a4565b5b60006135c284828501613589565b91505092915050565b7f4e487b7100000000000000000000000000000000000000000000000000000000600052603160045260246000fdfea26469706673582212203981394e4d637b90ea7497848db0922fcc46abd59c17f4ab6f0b1e1d8e00706464736f6c634300081c0033a2646970667358221220c289326782744901559896215747b7763285030cc13f5e074c62ebb564bd4eb564736f6c634300081c0033",
    "linkReferences": {},
    "deployedLinkReferences": {}
}