{
    "_format": "hh-sol-artifact-1",
    "contractName": "Ticket",
    "sourceName": "contracts/Ticket.sol",
    "abi": [
        {
            "inputs": [
                {
                    "internalType": "string",
                    "name": "_name",
                    "type": "string"
                },
                {
                    "internalType": "string",
                    "name": "_symbol",
                    "type": "string"
                },
                {
                    "internalType": "uint256",
                    "name": "_maxSupply",
                    "type": "uint256"
                },
                {
                    "internalType": "uint256",
                    "name": "_basePrice",
                    "type": "uint256"
                },
                {
                    "internalType": "uint256",
                    "name": "_commissionRate",
                    "type": "uint256"
                },
                {
                    "internalType": "address",
                    "name": "_userRegistry",
                    "type": "address"
                },
                {
                    "internalType": "address",
                    "name": "_organiser",
                    "type": "address"
                }
            ],
            "stateMutability": "nonpayable",
            "type": "constructor"
        },
        {
            "inputs": [],
            "name": "ERC721EnumerableForbiddenBatchMint",
            "type": "error"
        },
        {
            "inputs": [
                {
                    "internalType": "address",
                    "name": "sender",
                    "type": "address"
                },
                {
                    "internalType": "uint256",
                    "name": "tokenId",
                    "type": "uint256"
                },
                {
                    "internalType": "address",
                    "name": "owner",
                    "type": "address"
                }
            ],
            "name": "ERC721IncorrectOwner",
            "type": "error"
        },
        {
            "inputs": [
                {
                    "internalType": "address",
                    "name": "operator",
                    "type": "address"
                },
                {
                    "internalType": "uint256",
                    "name": "tokenId",
                    "type": "uint256"
                }
            ],
            "name": "ERC721InsufficientApproval",
            "type": "error"
        },
        {
            "inputs": [
                {
                    "internalType": "address",
                    "name": "approver",
                    "type": "address"
                }
            ],
            "name": "ERC721InvalidApprover",
            "type": "error"
        },
        {
            "inputs": [
                {
                    "internalType": "address",
                    "name": "operator",
                    "type": "address"
                }
            ],
            "name": "ERC721InvalidOperator",
            "type": "error"
        },
        {
            "inputs": [
                {
                    "internalType": "address",
                    "name": "owner",
                    "type": "address"
                }
            ],
            "name": "ERC721InvalidOwner",
            "type": "error"
        },
        {
            "inputs": [
                {
                    "internalType": "address",
                    "name": "receiver",
                    "type": "address"
                }
            ],
            "name": "ERC721InvalidReceiver",
            "type": "error"
        },
        {
            "inputs": [
                {
                    "internalType": "address",
                    "name": "sender",
                    "type": "address"
                }
            ],
            "name": "ERC721InvalidSender",
            "type": "error"
        },
        {
            "inputs": [
                {
                    "internalType": "uint256",
                    "name": "tokenId",
                    "type": "uint256"
                }
            ],
            "name": "ERC721NonexistentToken",
            "type": "error"
        },
        {
            "inputs": [
                {
                    "internalType": "address",
                    "name": "owner",
                    "type": "address"
                },
                {
                    "internalType": "uint256",
                    "name": "index",
                    "type": "uint256"
                }
            ],
            "name": "ERC721OutOfBoundsIndex",
            "type": "error"
        },
        {
            "anonymous": false,
            "inputs": [
                {
                    "indexed": true,
                    "internalType": "address",
                    "name": "owner",
                    "type": "address"
                },
                {
                    "indexed": true,
                    "internalType": "address",
                    "name": "approved",
                    "type": "address"
                },
                {
                    "indexed": true,
                    "internalType": "uint256",
                    "name": "tokenId",
                    "type": "uint256"
                }
            ],
            "name": "Approval",
            "type": "event"
        },
        {
            "anonymous": false,
            "inputs": [
                {
                    "indexed": true,
                    "internalType": "address",
                    "name": "owner",
                    "type": "address"
                },
                {
                    "indexed": true,
                    "internalType": "address",
                    "name": "operator",
                    "type": "address"
                },
                {
                    "indexed": false,
                    "internalType": "bool",
                    "name": "approved",
                    "type": "bool"
                }
            ],
            "name": "ApprovalForAll",
            "type": "event"
        },
        {
            "anonymous": false,
            "inputs": [
                {
                    "indexed": true,
                    "internalType": "uint256",
                    "name": "ticketId",
                    "type": "uint256"
                },
                {
                    "indexed": false,
                    "internalType": "address",
                    "name": "buyer",
                    "type": "address"
                },
                {
                    "indexed": false,
                    "internalType": "uint256",
                    "name": "price",
                    "type": "uint256"
                }
            ],
            "name": "TicketPurchased",
            "type": "event"
        },
        {
            "anonymous": false,
            "inputs": [
                {
                    "indexed": true,
                    "internalType": "uint256",
                    "name": "ticketId",
                    "type": "uint256"
                },
                {
                    "indexed": false,
                    "internalType": "address",
                    "name": "from",
                    "type": "address"
                },
                {
                    "indexed": false,
                    "internalType": "address",
                    "name": "to",
                    "type": "address"
                },
                {
                    "indexed": false,
                    "internalType": "uint256",
                    "name": "price",
                    "type": "uint256"
                }
            ],
            "name": "TicketResold",
            "type": "event"
        },
        {
            "anonymous": false,
            "inputs": [
                {
                    "indexed": true,
                    "internalType": "address",
                    "name": "from",
                    "type": "address"
                },
                {
                    "indexed": true,
                    "internalType": "address",
                    "name": "to",
                    "type": "address"
                },
                {
                    "indexed": true,
                    "internalType": "uint256",
                    "name": "tokenId",
                    "type": "uint256"
                }
            ],
            "name": "Transfer",
            "type": "event"
        },
        {
            "inputs": [],
            "name": "COMMISSION_DENOMINATOR",
            "outputs": [
                {
                    "internalType": "uint256",
                    "name": "",
                    "type": "uint256"
                }
            ],
            "stateMutability": "view",
            "type": "function"
        },
        {
            "inputs": [
                {
                    "internalType": "address",
                    "name": "to",
                    "type": "address"
                },
                {
                    "internalType": "uint256",
                    "name": "tokenId",
                    "type": "uint256"
                }
            ],
            "name": "approve",
            "outputs": [],
            "stateMutability": "nonpayable",
            "type": "function"
        },
        {
            "inputs": [
                {
                    "internalType": "address",
                    "name": "owner",
                    "type": "address"
                }
            ],
            "name": "balanceOf",
            "outputs": [
                {
                    "internalType": "uint256",
                    "name": "",
                    "type": "uint256"
                }
            ],
            "stateMutability": "view",
            "type": "function"
        },
        {
            "inputs": [],
            "name": "basePrice",
            "outputs": [
                {
                    "internalType": "uint256",
                    "name": "",
                    "type": "uint256"
                }
            ],
            "stateMutability": "view",
            "type": "function"
        },
        {
            "inputs": [
                {
                    "internalType": "address",
                    "name": "buyer",
                    "type": "address"
                }
            ],
            "name": "buyTicket",
            "outputs": [],
            "stateMutability": "payable",
            "type": "function"
        },
        {
            "inputs": [],
            "name": "commissionRate",
            "outputs": [
                {
                    "internalType": "uint256",
                    "name": "",
                    "type": "uint256"
                }
            ],
            "stateMutability": "view",
            "type": "function"
        },
        {
            "inputs": [
                {
                    "internalType": "uint256",
                    "name": "tokenId",
                    "type": "uint256"
                }
            ],
            "name": "getApproved",
            "outputs": [
                {
                    "internalType": "address",
                    "name": "",
                    "type": "address"
                }
            ],
            "stateMutability": "view",
            "type": "function"
        },
        {
            "inputs": [
                {
                    "internalType": "uint256",
                    "name": "ticketId",
                    "type": "uint256"
                }
            ],
            "name": "getBasePrice",
            "outputs": [
                {
                    "internalType": "uint256",
                    "name": "",
                    "type": "uint256"
                }
            ],
            "stateMutability": "view",
            "type": "function"
        },
        {
            "inputs": [
                {
                    "internalType": "uint256",
                    "name": "ticketId",
                    "type": "uint256"
                }
            ],
            "name": "getTicketOwner",
            "outputs": [
                {
                    "internalType": "address",
                    "name": "",
                    "type": "address"
                }
            ],
            "stateMutability": "view",
            "type": "function"
        },
        {
            "inputs": [
                {
                    "internalType": "address",
                    "name": "owner",
                    "type": "address"
                },
                {
                    "internalType": "address",
                    "name": "operator",
                    "type": "address"
                }
            ],
            "name": "isApprovedForAll",
            "outputs": [
                {
                    "internalType": "bool",
                    "name": "",
                    "type": "bool"
                }
            ],
            "stateMutability": "view",
            "type": "function"
        },
        {
            "inputs": [],
            "name": "maxSupply",
            "outputs": [
                {
                    "internalType": "uint256",
                    "name": "",
                    "type": "uint256"
                }
            ],
            "stateMutability": "view",
            "type": "function"
        },
        {
            "inputs": [],
            "name": "name",
            "outputs": [
                {
                    "internalType": "string",
                    "name": "",
                    "type": "string"
                }
            ],
            "stateMutability": "view",
            "type": "function"
        },
        {
            "inputs": [],
            "name": "organiser",
            "outputs": [
                {
                    "internalType": "address",
                    "name": "",
                    "type": "address"
                }
            ],
            "stateMutability": "view",
            "type": "function"
        },
        {
            "inputs": [
                {
                    "internalType": "uint256",
                    "name": "tokenId",
                    "type": "uint256"
                }
            ],
            "name": "ownerOf",
            "outputs": [
                {
                    "internalType": "address",
                    "name": "",
                    "type": "address"
                }
            ],
            "stateMutability": "view",
            "type": "function"
        },
        {
            "inputs": [
                {
                    "internalType": "address",
                    "name": "from",
                    "type": "address"
                },
                {
                    "internalType": "address",
                    "name": "to",
                    "type": "address"
                },
                {
                    "internalType": "uint256",
                    "name": "tokenId",
                    "type": "uint256"
                }
            ],
            "name": "safeTransferFrom",
            "outputs": [],
            "stateMutability": "nonpayable",
            "type": "function"
        },
        {
            "inputs": [
                {
                    "internalType": "address",
                    "name": "from",
                    "type": "address"
                },
                {
                    "internalType": "address",
                    "name": "to",
                    "type": "address"
                },
                {
                    "internalType": "uint256",
                    "name": "tokenId",
                    "type": "uint256"
                },
                {
                    "internalType": "bytes",
                    "name": "data",
                    "type": "bytes"
                }
            ],
            "name": "safeTransferFrom",
            "outputs": [],
            "stateMutability": "nonpayable",
            "type": "function"
        },
        {
            "inputs": [
                {
                    "internalType": "address",
                    "name": "from",
                    "type": "address"
                },
                {
                    "internalType": "address",
                    "name": "to",
                    "type": "address"
                },
                {
                    "internalType": "uint256",
                    "name": "ticketId",
                    "type": "uint256"
                }
            ],
            "name": "safeTransferFromWith",
            "outputs": [],
            "stateMutability": "nonpayable",
            "type": "function"
        },
        {
            "inputs": [
                {
                    "internalType": "address",
                    "name": "operator",
                    "type": "address"
                },
                {
                    "internalType": "bool",
                    "name": "approved",
                    "type": "bool"
                }
            ],
            "name": "setApprovalForAll",
            "outputs": [],
            "stateMutability": "nonpayable",
            "type": "function"
        },
        {
            "inputs": [
                {
                    "internalType": "bytes4",
                    "name": "interfaceId",
                    "type": "bytes4"
                }
            ],
            "name": "supportsInterface",
            "outputs": [
                {
                    "internalType": "bool",
                    "name": "",
                    "type": "bool"
                }
            ],
            "stateMutability": "view",
            "type": "function"
        },
        {
            "inputs": [],
            "name": "symbol",
            "outputs": [
                {
                    "internalType": "string",
                    "name": "",
                    "type": "string"
                }
            ],
            "stateMutability": "view",
            "type": "function"
        },
        {
            "inputs": [
                {
                    "internalType": "uint256",
                    "name": "",
                    "type": "uint256"
                }
            ],
            "name": "ticketData",
            "outputs": [
                {
                    "internalType": "address",
                    "name": "originalOwner",
                    "type": "address"
                },
                {
                    "internalType": "uint256",
                    "name": "purchasePrice",
                    "type": "uint256"
                },
                {
                    "internalType": "uint256",
                    "name": "lastTransfer",
                    "type": "uint256"
                }
            ],
            "stateMutability": "view",
            "type": "function"
        },
        {
            "inputs": [
                {
                    "internalType": "uint256",
                    "name": "index",
                    "type": "uint256"
                }
            ],
            "name": "tokenByIndex",
            "outputs": [
                {
                    "internalType": "uint256",
                    "name": "",
                    "type": "uint256"
                }
            ],
            "stateMutability": "view",
            "type": "function"
        },
        {
            "inputs": [
                {
                    "internalType": "address",
                    "name": "owner",
                    "type": "address"
                },
                {
                    "internalType": "uint256",
                    "name": "index",
                    "type": "uint256"
                }
            ],
            "name": "tokenOfOwnerByIndex",
            "outputs": [
                {
                    "internalType": "uint256",
                    "name": "",
                    "type": "uint256"
                }
            ],
            "stateMutability": "view",
            "type": "function"
        },
        {
            "inputs": [
                {
                    "internalType": "uint256",
                    "name": "tokenId",
                    "type": "uint256"
                }
            ],
            "name": "tokenURI",
            "outputs": [
                {
                    "internalType": "string",
                    "name": "",
                    "type": "string"
                }
            ],
            "stateMutability": "view",
            "type": "function"
        },
        {
            "inputs": [],
            "name": "totalMinted",
            "outputs": [
                {
                    "internalType": "uint256",
                    "name": "",
                    "type": "uint256"
                }
            ],
            "stateMutability": "view",
            "type": "function"
        },
        {
            "inputs": [],
            "name": "totalSold",
            "outputs": [
                {
                    "internalType": "uint256",
                    "name": "",
                    "type": "uint256"
                }
            ],
            "stateMutability": "view",
            "type": "function"
        },
        {
            "inputs": [],
            "name": "totalSupply",
            "outputs": [
                {
                    "internalType": "uint256",
                    "name": "",
                    "type": "uint256"
                }
            ],
            "stateMutability": "view",
            "type": "function"
        },
        {
            "inputs": [
                {
                    "internalType": "address",
                    "name": "from",
                    "type": "address"
                },
                {
                    "internalType": "address",
                    "name": "to",
                    "type": "address"
                },
                {
                    "internalType": "uint256",
                    "name": "tokenId",
                    "type": "uint256"
                }
            ],
            "name": "transferFrom",
            "outputs": [],
            "stateMutability": "nonpayable",
            "type": "function"
        },
        {
            "inputs": [],
            "name": "userRegistry",
            "outputs": [
                {
                    "internalType": "contract UserRegistry",
                    "name": "",
                    "type": "address"
                }
            ],
            "stateMutability": "view",
            "type": "function"
        }
    ],
    "bytecode": "0x61010060405234801561001157600080fd5b506040516139ba3803806139ba833981810160405281019061003391906102eb565b8686816000908161004491906105dc565b50806001908161005491906105dc565b5050508460e081815250508360c0818152505082600a819055508173ffffffffffffffffffffffffffffffffffffffff1660808173ffffffffffffffffffffffffffffffffffffffff16815250508073ffffffffffffffffffffffffffffffffffffffff1660a08173ffffffffffffffffffffffffffffffffffffffff1681525050505050505050506106ae565b6000604051905090565b600080fd5b600080fd5b600080fd5b600080fd5b6000601f19601f8301169050919050565b7f4e487b7100000000000000000000000000000000000000000000000000000000600052604160045260246000fd5b61014982610100565b810181811067ffffffffffffffff8211171561016857610167610111565b5b80604052505050565b600061017b6100e2565b90506101878282610140565b919050565b600067ffffffffffffffff8211156101a7576101a6610111565b5b6101b082610100565b9050602081019050919050565b60005b838110156101db5780820151818401526020810190506101c0565b60008484015250505050565b60006101fa6101f58461018c565b610171565b905082815260208101848484011115610216576102156100fb565b5b6102218482856101bd565b509392505050565b600082601f83011261023e5761023d6100f6565b5b815161024e8482602086016101e7565b91505092915050565b6000819050919050565b61026a81610257565b811461027557600080fd5b50565b60008151905061028781610261565b92915050565b600073ffffffffffffffffffffffffffffffffffffffff82169050919050565b60006102b88261028d565b9050919050565b6102c8816102ad565b81146102d357600080fd5b50565b6000815190506102e5816102bf565b92915050565b600080600080600080600060e0888a03121561030a576103096100ec565b5b600088015167ffffffffffffffff811115610328576103276100f1565b5b6103348a828b01610229565b975050602088015167ffffffffffffffff811115610355576103546100f1565b5b6103618a828b01610229565b96505060406103728a828b01610278565b95505060606103838a828b01610278565b94505060806103948a828b01610278565b93505060a06103a58a828b016102d6565b92505060c06103b68a828b016102d6565b91505092959891949750929550565b600081519050919050565b7f4e487b7100000000000000000000000000000000000000000000000000000000600052602260045260246000fd5b6000600282049050600182168061041757607f821691505b60208210810361042a576104296103d0565b5b50919050565b60008190508160005260206000209050919050565b60006020601f8301049050919050565b600082821b905092915050565b6000600883026104927fffffffffffffffffffffffffffffffffffffffffffffffffffffffffffffffff82610455565b61049c8683610455565b95508019841693508086168417925050509392505050565b6000819050919050565b60006104d96104d46104cf84610257565b6104b4565b610257565b9050919050565b6000819050919050565b6104f3836104be565b6105076104ff826104e0565b848454610462565b825550505050565b600090565b61051c61050f565b6105278184846104ea565b505050565b5b8181101561054b57610540600082610514565b60018101905061052d565b5050565b601f8211156105905761056181610430565b61056a84610445565b81016020851015610579578190505b61058d61058585610445565b83018261052c565b50505b505050565b600082821c905092915050565b60006105b360001984600802610595565b1980831691505092915050565b60006105cc83836105a2565b9150826002028217905092915050565b6105e5826103c5565b67ffffffffffffffff8111156105fe576105fd610111565b5b61060882546103ff565b61061382828561054f565b600060209050601f8311600181146106465760008415610634578287015190505b61063e85826105c0565b8655506106a6565b601f19841661065486610430565b60005b8281101561067c57848901518255600182019150602085019450602081019050610657565b868310156106995784890151610695601f8916826105a2565b8355505b6001600288020188555050505b505050505050565b60805160a05160c05160e0516132be6106fc60003960008181610e720152611242015260008181610ede01528181610f1301526111b501526000610d9a01526000610ca401526132be6000f3fe6080604052600436106101c25760003560e01c80635ea1d6f8116100f7578063a2309ff811610095578063c7876ea411610064578063c7876ea414610683578063c87b56dd146106ae578063d5abeb01146106eb578063e985e9c514610716576101c2565b8063a2309ff8146105d6578063a5f8cdbb14610601578063ad0934091461061d578063b88d4fde1461065a576101c2565b80637e537486116100d15780637e5374861461052c5780639106d7ba1461055757806395d89b4114610582578063a22cb465146105ad576101c2565b80635ea1d6f8146104875780636352211e146104b257806370a08231146104ef576101c2565b80632f745c591161016457806342842e0e1161013e57806342842e0e146103cd5780634cf3cc7b146103f65780634f6ccce71461041f5780635c7460d61461045c576101c2565b80632f745c5914610326578063394803fd146103635780633b1dbfcc146103a2576101c2565b8063095ea7b3116101a0578063095ea7b31461026c57806316ae917b1461029557806318160ddd146102d257806323b872dd146102fd576101c2565b806301ffc9a7146101c757806306fdde0314610204578063081812fc1461022f575b600080fd5b3480156101d357600080fd5b506101ee60048036038101906101e991906126c0565b610753565b6040516101fb9190612708565b60405180910390f35b34801561021057600080fd5b506102196107cd565b60405161022691906127b3565b60405180910390f35b34801561023b57600080fd5b506102566004803603810190610251919061280b565b61085f565b6040516102639190612879565b60405180910390f35b34801561027857600080fd5b50610293600480360381019061028e91906128c0565b61087b565b005b3480156102a157600080fd5b506102bc60048036038101906102b7919061280b565b610891565b6040516102c9919061290f565b60405180910390f35b3480156102de57600080fd5b506102e7610901565b6040516102f4919061290f565b60405180910390f35b34801561030957600080fd5b50610324600480360381019061031f919061292a565b61090e565b005b34801561033257600080fd5b5061034d600480360381019061034891906128c0565b610a10565b60405161035a919061290f565b60405180910390f35b34801561036f57600080fd5b5061038a6004803603810190610385919061280b565b610ab9565b6040516103999392919061297d565b60405180910390f35b3480156103ae57600080fd5b506103b7610b03565b6040516103c4919061290f565b60405180910390f35b3480156103d957600080fd5b506103f460048036038101906103ef919061292a565b610b09565b005b34801561040257600080fd5b5061041d6004803603810190610418919061292a565b610b29565b005b34801561042b57600080fd5b506104466004803603810190610441919061280b565b610c2c565b604051610453919061290f565b60405180910390f35b34801561046857600080fd5b50610471610ca2565b60405161047e9190612a13565b60405180910390f35b34801561049357600080fd5b5061049c610cc6565b6040516104a9919061290f565b60405180910390f35b3480156104be57600080fd5b506104d960048036038101906104d4919061280b565b610ccc565b6040516104e69190612879565b60405180910390f35b3480156104fb57600080fd5b5061051660048036038101906105119190612a2e565b610cde565b604051610523919061290f565b60405180910390f35b34801561053857600080fd5b50610541610d98565b60405161054e9190612879565b60405180910390f35b34801561056357600080fd5b5061056c610dbc565b604051610579919061290f565b60405180910390f35b34801561058e57600080fd5b50610597610dc2565b6040516105a491906127b3565b60405180910390f35b3480156105b957600080fd5b506105d460048036038101906105cf9190612a87565b610e54565b005b3480156105e257600080fd5b506105eb610e6a565b6040516105f8919061290f565b60405180910390f35b61061b60048036038101906106169190612a2e565b610e70565b005b34801561062957600080fd5b50610644600480360381019061063f919061280b565b6110fe565b6040516106519190612879565b60405180910390f35b34801561066657600080fd5b50610681600480360381019061067c9190612bfc565b61118e565b005b34801561068f57600080fd5b506106986111b3565b6040516106a5919061290f565b60405180910390f35b3480156106ba57600080fd5b506106d560048036038101906106d0919061280b565b6111d7565b6040516106e291906127b3565b60405180910390f35b3480156106f757600080fd5b50610700611240565b60405161070d919061290f565b60405180910390f35b34801561072257600080fd5b5061073d60048036038101906107389190612c7f565b611264565b60405161074a9190612708565b60405180910390f35b60007f780e9d63000000000000000000000000000000000000000000000000000000007bffffffffffffffffffffffffffffffffffffffffffffffffffffffff1916827bffffffffffffffffffffffffffffffffffffffffffffffffffffffff191614806107c657506107c5826112f8565b5b9050919050565b6060600080546107dc90612cee565b80601f016020809104026020016040519081016040528092919081815260200182805461080890612cee565b80156108555780601f1061082a57610100808354040283529160200191610855565b820191906000526020600020905b81548152906001019060200180831161083857829003601f168201915b5050505050905090565b600061086a826113da565b5061087482611462565b9050919050565b61088d828261088861149f565b6114a7565b5050565b600080821180156108a45750600b548211155b6108e3576040517f08c379a00000000000000000000000000000000000000000000000000000000081526004016108da90612d6b565b60405180910390fd5b600d6000838152602001908152602001600020600101549050919050565b6000600880549050905090565b600073ffffffffffffffffffffffffffffffffffffffff168273ffffffffffffffffffffffffffffffffffffffff16036109805760006040517f64a0ae920000000000000000000000000000000000000000000000000000000081526004016109779190612879565b60405180910390fd5b6000610994838361098f61149f565b6114b9565b90508373ffffffffffffffffffffffffffffffffffffffff168173ffffffffffffffffffffffffffffffffffffffff1614610a0a578382826040517f64283d7b000000000000000000000000000000000000000000000000000000008152600401610a0193929190612d8b565b60405180910390fd5b50505050565b6000610a1b83610cde565b8210610a605782826040517fa57d13dc000000000000000000000000000000000000000000000000000000008152600401610a57929190612dc2565b60405180910390fd5b600660008473ffffffffffffffffffffffffffffffffffffffff1673ffffffffffffffffffffffffffffffffffffffff168152602001908152602001600020600083815260200190815260200160002054905092915050565b600d6020528060005260406000206000915090508060000160009054906101000a900473ffffffffffffffffffffffffffffffffffffffff16908060010154908060020154905083565b61271081565b610b248383836040518060200160405280600081525061118e565b505050565b8273ffffffffffffffffffffffffffffffffffffffff16610b4982610ccc565b73ffffffffffffffffffffffffffffffffffffffff1614610b9f576040517f08c379a0000000000000000000000000000000000000000000000000000000008152600401610b9690612e37565b60405180910390fd5b42600d600083815260200190815260200160002060020181905550610bd5838383604051806020016040528060008152506115d6565b807fd59a36d8310ffb140214be490baf3fe8961f859a17199ec1bf9015c8b73400118484600d600086815260200190815260200160002060010154604051610c1f93929190612e57565b60405180910390a2505050565b6000610c36610901565b8210610c7c576000826040517fa57d13dc000000000000000000000000000000000000000000000000000000008152600401610c73929190612dc2565b60405180910390fd5b60088281548110610c9057610c8f612e8e565b5b90600052602060002001549050919050565b7f000000000000000000000000000000000000000000000000000000000000000081565b600a5481565b6000610cd7826113da565b9050919050565b60008073ffffffffffffffffffffffffffffffffffffffff168273ffffffffffffffffffffffffffffffffffffffff1603610d515760006040517f89c62b64000000000000000000000000000000000000000000000000000000008152600401610d489190612879565b60405180910390fd5b600360008373ffffffffffffffffffffffffffffffffffffffff1673ffffffffffffffffffffffffffffffffffffffff168152602001908152602001600020549050919050565b7f000000000000000000000000000000000000000000000000000000000000000081565b600c5481565b606060018054610dd190612cee565b80601f0160208091040260200160405190810160405280929190818152602001828054610dfd90612cee565b8015610e4a5780601f10610e1f57610100808354040283529160200191610e4a565b820191906000526020600020905b815481529060010190602001808311610e2d57829003601f168201915b5050505050905090565b610e66610e5f61149f565b83836115fb565b5050565b600b5481565b7f0000000000000000000000000000000000000000000000000000000000000000600c5410610ed4576040517f08c379a0000000000000000000000000000000000000000000000000000000008152600401610ecb90612f09565b60405180910390fd5b6000612710600a547f0000000000000000000000000000000000000000000000000000000000000000610f079190612f58565b610f119190612fc9565b7f0000000000000000000000000000000000000000000000000000000000000000610f3c9190612ffa565b905080341015610f81576040517f08c379a0000000000000000000000000000000000000000000000000000000008152600401610f789061307a565b60405180910390fd5b600b6000815480929190610f949061309a565b9190505550600c6000815480929190610fac9061309a565b91905055506000600b549050610fc2838261176a565b60405180606001604052808473ffffffffffffffffffffffffffffffffffffffff16815260200183815260200142815250600d600083815260200190815260200160002060008201518160000160006101000a81548173ffffffffffffffffffffffffffffffffffffffff021916908373ffffffffffffffffffffffffffffffffffffffff1602179055506020820151816001015560408201518160020155905050813411156110bf578273ffffffffffffffffffffffffffffffffffffffff166108fc833461109291906130e2565b9081150290604051600060405180830381858888f193505050501580156110bd573d6000803e3d6000fd5b505b807fdbaaf4c87ce30816c961a81d110622a3227ede77953d4383d514ff88ab2e0fd384846040516110f1929190612dc2565b60405180910390a2505050565b600080821180156111115750600b548211155b611150576040517f08c379a000000000000000000000000000000000000000000000000000000000815260040161114790612d6b565b60405180910390fd5b600d600083815260200190815260200160002060000160009054906101000a900473ffffffffffffffffffffffffffffffffffffffff169050919050565b61119984848461090e565b6111ad6111a461149f565b85858585611863565b50505050565b7f000000000000000000000000000000000000000000000000000000000000000081565b60606111e2826113da565b5060006111ed611a14565b9050600081511161120d5760405180602001604052806000815250611238565b8061121784611a2b565b604051602001611228929190613152565b6040516020818303038152906040525b915050919050565b7f000000000000000000000000000000000000000000000000000000000000000081565b6000600560008473ffffffffffffffffffffffffffffffffffffffff1673ffffffffffffffffffffffffffffffffffffffff16815260200190815260200160002060008373ffffffffffffffffffffffffffffffffffffffff1673ffffffffffffffffffffffffffffffffffffffff16815260200190815260200160002060009054906101000a900460ff16905092915050565b60007f80ac58cd000000000000000000000000000000000000000000000000000000007bffffffffffffffffffffffffffffffffffffffffffffffffffffffff1916827bffffffffffffffffffffffffffffffffffffffffffffffffffffffff191614806113c357507f5b5e139f000000000000000000000000000000000000000000000000000000007bffffffffffffffffffffffffffffffffffffffffffffffffffffffff1916827bffffffffffffffffffffffffffffffffffffffffffffffffffffffff1916145b806113d357506113d282611af9565b5b9050919050565b6000806113e683611b63565b9050600073ffffffffffffffffffffffffffffffffffffffff168173ffffffffffffffffffffffffffffffffffffffff160361145957826040517f7e273289000000000000000000000000000000000000000000000000000000008152600401611450919061290f565b60405180910390fd5b80915050919050565b60006004600083815260200190815260200160002060009054906101000a900473ffffffffffffffffffffffffffffffffffffffff169050919050565b600033905090565b6114b48383836001611ba0565b505050565b6000806114c7858585611d65565b9050600073ffffffffffffffffffffffffffffffffffffffff168173ffffffffffffffffffffffffffffffffffffffff160361150b5761150684611f7f565b61154a565b8473ffffffffffffffffffffffffffffffffffffffff168173ffffffffffffffffffffffffffffffffffffffff1614611549576115488185611fc8565b5b5b600073ffffffffffffffffffffffffffffffffffffffff168573ffffffffffffffffffffffffffffffffffffffff160361158c57611587846120b3565b6115cb565b8473ffffffffffffffffffffffffffffffffffffffff168173ffffffffffffffffffffffffffffffffffffffff16146115ca576115c98585612184565b5b5b809150509392505050565b6115e184848461220f565b6115f56115ec61149f565b85858585611863565b50505050565b600073ffffffffffffffffffffffffffffffffffffffff168273ffffffffffffffffffffffffffffffffffffffff160361166c57816040517f5b08ba180000000000000000000000000000000000000000000000000000000081526004016116639190612879565b60405180910390fd5b80600560008573ffffffffffffffffffffffffffffffffffffffff1673ffffffffffffffffffffffffffffffffffffffff16815260200190815260200160002060008473ffffffffffffffffffffffffffffffffffffffff1673ffffffffffffffffffffffffffffffffffffffff16815260200190815260200160002060006101000a81548160ff0219169083151502179055508173ffffffffffffffffffffffffffffffffffffffff168373ffffffffffffffffffffffffffffffffffffffff167f17307eab39ab6107e8899845ad3d59bd9653f200f220920489ca2b5937696c318360405161175d9190612708565b60405180910390a3505050565b600073ffffffffffffffffffffffffffffffffffffffff168273ffffffffffffffffffffffffffffffffffffffff16036117dc5760006040517f64a0ae920000000000000000000000000000000000000000000000000000000081526004016117d39190612879565b60405180910390fd5b60006117ea838360006114b9565b9050600073ffffffffffffffffffffffffffffffffffffffff168173ffffffffffffffffffffffffffffffffffffffff161461185e5760006040517f73c6ac6e0000000000000000000000000000000000000000000000000000000081526004016118559190612879565b60405180910390fd5b505050565b60008373ffffffffffffffffffffffffffffffffffffffff163b1115611a0d578273ffffffffffffffffffffffffffffffffffffffff1663150b7a02868685856040518563ffffffff1660e01b81526004016118c294939291906131cb565b6020604051808303816000875af19250505080156118fe57506040513d601f19601f820116820180604052508101906118fb919061322c565b60015b611982573d806000811461192e576040519150601f19603f3d011682016040523d82523d6000602084013e611933565b606091505b50600081510361197a57836040517f64a0ae920000000000000000000000000000000000000000000000000000000081526004016119719190612879565b60405180910390fd5b805181602001fd5b63150b7a0260e01b7bffffffffffffffffffffffffffffffffffffffffffffffffffffffff1916817bffffffffffffffffffffffffffffffffffffffffffffffffffffffff191614611a0b57836040517f64a0ae92000000000000000000000000000000000000000000000000000000008152600401611a029190612879565b60405180910390fd5b505b5050505050565b606060405180602001604052806000815250905090565b606060006001611a3a8461237c565b01905060008167ffffffffffffffff811115611a5957611a58612ad1565b5b6040519080825280601f01601f191660200182016040528015611a8b5781602001600182028036833780820191505090505b509050600082602001820190505b600115611aee578080600190039150507f3031323334353637383961626364656600000000000000000000000000000000600a86061a8153600a8581611ae257611ae1612f9a565b5b04945060008503611a99575b819350505050919050565b60007f01ffc9a7000000000000000000000000000000000000000000000000000000007bffffffffffffffffffffffffffffffffffffffffffffffffffffffff1916827bffffffffffffffffffffffffffffffffffffffffffffffffffffffff1916149050919050565b60006002600083815260200190815260200160002060009054906101000a900473ffffffffffffffffffffffffffffffffffffffff169050919050565b8080611bd95750600073ffffffffffffffffffffffffffffffffffffffff168273ffffffffffffffffffffffffffffffffffffffff1614155b15611d0d576000611be9846113da565b9050600073ffffffffffffffffffffffffffffffffffffffff168373ffffffffffffffffffffffffffffffffffffffff1614158015611c5457508273ffffffffffffffffffffffffffffffffffffffff168173ffffffffffffffffffffffffffffffffffffffff1614155b8015611c675750611c658184611264565b155b15611ca957826040517fa9fbf51f000000000000000000000000000000000000000000000000000000008152600401611ca09190612879565b60405180910390fd5b8115611d0b57838573ffffffffffffffffffffffffffffffffffffffff168273ffffffffffffffffffffffffffffffffffffffff167f8c5be1e5ebec7d5bd14f71427d1e84f3dd0314c0f7b2291e5b200ac8c7c3b92560405160405180910390a45b505b836004600085815260200190815260200160002060006101000a81548173ffffffffffffffffffffffffffffffffffffffff021916908373ffffffffffffffffffffffffffffffffffffffff16021790555050505050565b600080611d7184611b63565b9050600073ffffffffffffffffffffffffffffffffffffffff168373ffffffffffffffffffffffffffffffffffffffff1614611db357611db28184866124cf565b5b600073ffffffffffffffffffffffffffffffffffffffff168173ffffffffffffffffffffffffffffffffffffffff1614611e4457611df5600085600080611ba0565b6001600360008373ffffffffffffffffffffffffffffffffffffffff1673ffffffffffffffffffffffffffffffffffffffff168152602001908152602001600020600082825403925050819055505b600073ffffffffffffffffffffffffffffffffffffffff168573ffffffffffffffffffffffffffffffffffffffff1614611ec7576001600360008773ffffffffffffffffffffffffffffffffffffffff1673ffffffffffffffffffffffffffffffffffffffff168152602001908152602001600020600082825401925050819055505b846002600086815260200190815260200160002060006101000a81548173ffffffffffffffffffffffffffffffffffffffff021916908373ffffffffffffffffffffffffffffffffffffffff160217905550838573ffffffffffffffffffffffffffffffffffffffff168273ffffffffffffffffffffffffffffffffffffffff167fddf252ad1be2c89b69c2b068fc378daa952ba7f163c4a11628f55a4df523b3ef60405160405180910390a4809150509392505050565b6008805490506009600083815260200190815260200160002081905550600881908060018154018082558091505060019003906000526020600020016000909190919091505550565b6000611fd383610cde565b90506000600760008481526020019081526020016000205490506000600660008673ffffffffffffffffffffffffffffffffffffffff1673ffffffffffffffffffffffffffffffffffffffff168152602001908152602001600020905082821461207f5760008160008581526020019081526020016000205490508082600085815260200190815260200160002081905550826007600083815260200190815260200160002081905550505b6007600085815260200190815260200160002060009055806000848152602001908152602001600020600090555050505050565b600060016008805490506120c791906130e2565b90506000600960008481526020019081526020016000205490506000600883815481106120f7576120f6612e8e565b5b90600052602060002001549050806008838154811061211957612118612e8e565b5b90600052602060002001819055508160096000838152602001908152602001600020819055506009600085815260200190815260200160002060009055600880548061216857612167613259565b5b6001900381819060005260206000200160009055905550505050565b6000600161219184610cde565b61219b91906130e2565b905081600660008573ffffffffffffffffffffffffffffffffffffffff1673ffffffffffffffffffffffffffffffffffffffff168152602001908152602001600020600083815260200190815260200160002081905550806007600084815260200190815260200160002081905550505050565b600073ffffffffffffffffffffffffffffffffffffffff168273ffffffffffffffffffffffffffffffffffffffff16036122815760006040517f64a0ae920000000000000000000000000000000000000000000000000000000081526004016122789190612879565b60405180910390fd5b600061228f838360006114b9565b9050600073ffffffffffffffffffffffffffffffffffffffff168173ffffffffffffffffffffffffffffffffffffffff160361230257816040517f7e2732890000000000000000000000000000000000000000000000000000000081526004016122f9919061290f565b60405180910390fd5b8373ffffffffffffffffffffffffffffffffffffffff168173ffffffffffffffffffffffffffffffffffffffff1614612376578382826040517f64283d7b00000000000000000000000000000000000000000000000000000000815260040161236d93929190612d8b565b60405180910390fd5b50505050565b600080600090507a184f03e93ff9f4daa797ed6e38ed64bf6a1f01000000000000000083106123da577a184f03e93ff9f4daa797ed6e38ed64bf6a1f01000000000000000083816123d0576123cf612f9a565b5b0492506040810190505b6d04ee2d6d415b85acef81000000008310612417576d04ee2d6d415b85acef8100000000838161240d5761240c612f9a565b5b0492506020810190505b662386f26fc10000831061244657662386f26fc10000838161243c5761243b612f9a565b5b0492506010810190505b6305f5e100831061246f576305f5e100838161246557612464612f9a565b5b0492506008810190505b612710831061249457612710838161248a57612489612f9a565b5b0492506004810190505b606483106124b757606483816124ad576124ac612f9a565b5b0492506002810190505b600a83106124c6576001810190505b80915050919050565b6124da838383612593565b61258e57600073ffffffffffffffffffffffffffffffffffffffff168373ffffffffffffffffffffffffffffffffffffffff160361254f57806040517f7e273289000000000000000000000000000000000000000000000000000000008152600401612546919061290f565b60405180910390fd5b81816040517f177e802f000000000000000000000000000000000000000000000000000000008152600401612585929190612dc2565b60405180910390fd5b505050565b60008073ffffffffffffffffffffffffffffffffffffffff168373ffffffffffffffffffffffffffffffffffffffff161415801561264b57508273ffffffffffffffffffffffffffffffffffffffff168473ffffffffffffffffffffffffffffffffffffffff16148061260c575061260b8484611264565b5b8061264a57508273ffffffffffffffffffffffffffffffffffffffff1661263283611462565b73ffffffffffffffffffffffffffffffffffffffff16145b5b90509392505050565b6000604051905090565b600080fd5b600080fd5b60007fffffffff0000000000000000000000000000000000000000000000000000000082169050919050565b61269d81612668565b81146126a857600080fd5b50565b6000813590506126ba81612694565b92915050565b6000602082840312156126d6576126d561265e565b5b60006126e4848285016126ab565b91505092915050565b60008115159050919050565b612702816126ed565b82525050565b600060208201905061271d60008301846126f9565b92915050565b600081519050919050565b600082825260208201905092915050565b60005b8381101561275d578082015181840152602081019050612742565b60008484015250505050565b6000601f19601f8301169050919050565b600061278582612723565b61278f818561272e565b935061279f81856020860161273f565b6127a881612769565b840191505092915050565b600060208201905081810360008301526127cd818461277a565b905092915050565b6000819050919050565b6127e8816127d5565b81146127f357600080fd5b50565b600081359050612805816127df565b92915050565b6000602082840312156128215761282061265e565b5b600061282f848285016127f6565b91505092915050565b600073ffffffffffffffffffffffffffffffffffffffff82169050919050565b600061286382612838565b9050919050565b61287381612858565b82525050565b600060208201905061288e600083018461286a565b92915050565b61289d81612858565b81146128a857600080fd5b50565b6000813590506128ba81612894565b92915050565b600080604083850312156128d7576128d661265e565b5b60006128e5858286016128ab565b92505060206128f6858286016127f6565b9150509250929050565b612909816127d5565b82525050565b60006020820190506129246000830184612900565b92915050565b6000806000606084860312156129435761294261265e565b5b6000612951868287016128ab565b9350506020612962868287016128ab565b9250506040612973868287016127f6565b9150509250925092565b6000606082019050612992600083018661286a565b61299f6020830185612900565b6129ac6040830184612900565b949350505050565b6000819050919050565b60006129d96129d46129cf84612838565b6129b4565b612838565b9050919050565b60006129eb826129be565b9050919050565b60006129fd826129e0565b9050919050565b612a0d816129f2565b82525050565b6000602082019050612a286000830184612a04565b92915050565b600060208284031215612a4457612a4361265e565b5b6000612a52848285016128ab565b91505092915050565b612a64816126ed565b8114612a6f57600080fd5b50565b600081359050612a8181612a5b565b92915050565b60008060408385031215612a9e57612a9d61265e565b5b6000612aac858286016128ab565b9250506020612abd85828601612a72565b9150509250929050565b600080fd5b600080fd5b7f4e487b7100000000000000000000000000000000000000000000000000000000600052604160045260246000fd5b612b0982612769565b810181811067ffffffffffffffff82111715612b2857612b27612ad1565b5b80604052505050565b6000612b3b612654565b9050612b478282612b00565b919050565b600067ffffffffffffffff821115612b6757612b66612ad1565b5b612b7082612769565b9050602081019050919050565b82818337600083830152505050565b6000612b9f612b9a84612b4c565b612b31565b905082815260208101848484011115612bbb57612bba612acc565b5b612bc6848285612b7d565b509392505050565b600082601f830112612be357612be2612ac7565b5b8135612bf3848260208601612b8c565b91505092915050565b60008060008060808587031215612c1657612c1561265e565b5b6000612c24878288016128ab565b9450506020612c35878288016128ab565b9350506040612c46878288016127f6565b925050606085013567ffffffffffffffff811115612c6757612c66612663565b5b612c7387828801612bce565b91505092959194509250565b60008060408385031215612c9657612c9561265e565b5b6000612ca4858286016128ab565b9250506020612cb5858286016128ab565b9150509250929050565b7f4e487b7100000000000000000000000000000000000000000000000000000000600052602260045260246000fd5b60006002820490506001821680612d0657607f821691505b602082108103612d1957612d18612cbf565b5b50919050565b7f5469636b657420646f6573206e6f742065786973740000000000000000000000600082015250565b6000612d5560158361272e565b9150612d6082612d1f565b602082019050919050565b60006020820190508181036000830152612d8481612d48565b9050919050565b6000606082019050612da0600083018661286a565b612dad6020830185612900565b612dba604083018461286a565b949350505050565b6000604082019050612dd7600083018561286a565b612de46020830184612900565b9392505050565b7f4e6f7420746865207469636b6574206f776e6572000000000000000000000000600082015250565b6000612e2160148361272e565b9150612e2c82612deb565b602082019050919050565b60006020820190508181036000830152612e5081612e14565b9050919050565b6000606082019050612e6c600083018661286a565b612e79602083018561286a565b612e866040830184612900565b949350505050565b7f4e487b7100000000000000000000000000000000000000000000000000000000600052603260045260246000fd5b7f536f6c64206f7574000000000000000000000000000000000000000000000000600082015250565b6000612ef360088361272e565b9150612efe82612ebd565b602082019050919050565b60006020820190508181036000830152612f2281612ee6565b9050919050565b7f4e487b7100000000000000000000000000000000000000000000000000000000600052601160045260246000fd5b6000612f63826127d5565b9150612f6e836127d5565b9250828202612f7c816127d5565b91508282048414831517612f9357612f92612f29565b5b5092915050565b7f4e487b7100000000000000000000000000000000000000000000000000000000600052601260045260246000fd5b6000612fd4826127d5565b9150612fdf836127d5565b925082612fef57612fee612f9a565b5b828204905092915050565b6000613005826127d5565b9150613010836127d5565b925082820190508082111561302857613027612f29565b5b92915050565b7f496e73756666696369656e742066756e64730000000000000000000000000000600082015250565b600061306460128361272e565b915061306f8261302e565b602082019050919050565b6000602082019050818103600083015261309381613057565b9050919050565b60006130a5826127d5565b91507fffffffffffffffffffffffffffffffffffffffffffffffffffffffffffffffff82036130d7576130d6612f29565b5b600182019050919050565b60006130ed826127d5565b91506130f8836127d5565b92508282039050818111156131105761310f612f29565b5b92915050565b600081905092915050565b600061312c82612723565b6131368185613116565b935061314681856020860161273f565b80840191505092915050565b600061315e8285613121565b915061316a8284613121565b91508190509392505050565b600081519050919050565b600082825260208201905092915050565b600061319d82613176565b6131a78185613181565b93506131b781856020860161273f565b6131c081612769565b840191505092915050565b60006080820190506131e0600083018761286a565b6131ed602083018661286a565b6131fa6040830185612900565b818103606083015261320c8184613192565b905095945050505050565b60008151905061322681612694565b92915050565b6000602082840312156132425761324161265e565b5b600061325084828501613217565b91505092915050565b7f4e487b7100000000000000000000000000000000000000000000000000000000600052603160045260246000fdfea2646970667358221220f4369adbd4f6f3a11633c08fbed0cac6686bf2ae757b218f7962bd90a470699d64736f6c634300081c0033",
    "linkReferences": {},
    "deployedLinkReferences": {}
}