{
  "_format": "hh-sol-artifact-1",
  "contractName": "UserRegistry",
  "sourceName": "contracts/UserRegistry.sol",
  "abi": [
    {
      "anonymous": false,
      "inputs": [
        {
          "indexed": true,
          "internalType": "address",
          "name": "user",
          "type": "address"
        },
        {
          "indexed": false,
          "internalType": "string",
          "name": "hashedNRIC",
          "type": "string"
        },
        {
          "indexed": false,
          "internalType": "string",
          "name": "name",
          "type": "string"
        }
      ],
      "name": "UserRegistered",
      "type": "event"
    },
    {
      "inputs": [
        {
          "internalType": "address",
          "name": "user",
          "type": "address"
        }
      ],
      "name": "getUserDetails",
      "outputs": [
        {
          "internalType": "string",
          "name": "",
          "type": "string"
        },
        {
          "internalType": "string",
          "name": "",
          "type": "string"
        },
        {
          "internalType": "bool",
          "name": "",
          "type": "bool"
        }
      ],
      "stateMutability": "view",
      "type": "function"
    },
    {
      "inputs": [
        {
          "internalType": "address",
          "name": "user",
          "type": "address"
        }
      ],
      "name": "isRegistered",
      "outputs": [
        {
          "internalType": "bool",
          "name": "",
          "type": "bool"
        }
      ],
      "stateMutability": "view",
      "type": "function"
    },
    {
      "inputs": [
        {
          "internalType": "string",
          "name": "hashedNRIC",
          "type": "string"
        },
        {
          "internalType": "string",
          "name": "name",
          "type": "string"
        }
      ],
      "name": "registerUser",
      "outputs": [],
      "stateMutability": "nonpayable",
      "type": "function"
    }
  ],
  "bytecode": "0x6080604052348015600f57600080fd5b50610c968061001f6000396000f3fe608060405234801561001057600080fd5b50600436106100415760003560e01c80631d2e4afd14610046578063c3c5a54714610062578063cc3d967b14610092575b600080fd5b610060600480360381019061005b91906105e3565b6100c4565b005b61007c600480360381019061007791906106c2565b6102e0565b604051610089919061070a565b60405180910390f35b6100ac60048036038101906100a791906106c2565b610338565b6040516100bb939291906107b5565b60405180910390f35b6000803373ffffffffffffffffffffffffffffffffffffffff1673ffffffffffffffffffffffffffffffffffffffff16815260200190815260200160002060020160009054906101000a900460ff1615610153576040517f08c379a000000000000000000000000000000000000000000000000000000000815260040161014a90610846565b60405180910390fd5b604051806060016040528085858080601f016020809104026020016040519081016040528093929190818152602001838380828437600081840152601f19601f82011690508083019250505050505050815260200183838080601f016020809104026020016040519081016040528093929190818152602001838380828437600081840152601f19601f820116905080830192505050505050508152602001600115158152506000803373ffffffffffffffffffffffffffffffffffffffff1673ffffffffffffffffffffffffffffffffffffffff168152602001908152602001600020600082015181600001908161024c9190610aab565b5060208201518160010190816102629190610aab565b5060408201518160020160006101000a81548160ff0219169083151502179055509050503373ffffffffffffffffffffffffffffffffffffffff167f92822564bab8864c3a47b34e8d23fbce5c46234eb5da261f94087b995ac0f33b858585856040516102d29493929190610bb9565b60405180910390a250505050565b60008060008373ffffffffffffffffffffffffffffffffffffffff1673ffffffffffffffffffffffffffffffffffffffff16815260200190815260200160002060020160009054906101000a900460ff169050919050565b60608060008060008573ffffffffffffffffffffffffffffffffffffffff1673ffffffffffffffffffffffffffffffffffffffff16815260200190815260200160002060020160009054906101000a900460ff166103cb576040517f08c379a00000000000000000000000000000000000000000000000000000000081526004016103c290610c40565b60405180910390fd5b6000808573ffffffffffffffffffffffffffffffffffffffff1673ffffffffffffffffffffffffffffffffffffffff1681526020019081526020016000206000016000808673ffffffffffffffffffffffffffffffffffffffff1673ffffffffffffffffffffffffffffffffffffffff168152602001908152602001600020600101600182805461045b906108c4565b80601f0160208091040260200160405190810160405280929190818152602001828054610487906108c4565b80156104d45780601f106104a9576101008083540402835291602001916104d4565b820191906000526020600020905b8154815290600101906020018083116104b757829003601f168201915b505050505092508180546104e7906108c4565b80601f0160208091040260200160405190810160405280929190818152602001828054610513906108c4565b80156105605780601f1061053557610100808354040283529160200191610560565b820191906000526020600020905b81548152906001019060200180831161054357829003601f168201915b505050505091509250925092509193909250565b600080fd5b600080fd5b600080fd5b600080fd5b600080fd5b60008083601f8401126105a3576105a261057e565b5b8235905067ffffffffffffffff8111156105c0576105bf610583565b5b6020830191508360018202830111156105dc576105db610588565b5b9250929050565b600080600080604085870312156105fd576105fc610574565b5b600085013567ffffffffffffffff81111561061b5761061a610579565b5b6106278782880161058d565b9450945050602085013567ffffffffffffffff81111561064a57610649610579565b5b6106568782880161058d565b925092505092959194509250565b600073ffffffffffffffffffffffffffffffffffffffff82169050919050565b600061068f82610664565b9050919050565b61069f81610684565b81146106aa57600080fd5b50565b6000813590506106bc81610696565b92915050565b6000602082840312156106d8576106d7610574565b5b60006106e6848285016106ad565b91505092915050565b60008115159050919050565b610704816106ef565b82525050565b600060208201905061071f60008301846106fb565b92915050565b600081519050919050565b600082825260208201905092915050565b60005b8381101561075f578082015181840152602081019050610744565b60008484015250505050565b6000601f19601f8301169050919050565b600061078782610725565b6107918185610730565b93506107a1818560208601610741565b6107aa8161076b565b840191505092915050565b600060608201905081810360008301526107cf818661077c565b905081810360208301526107e3818561077c565b90506107f260408301846106fb565b949350505050565b7f416c726561647920726567697374657265640000000000000000000000000000600082015250565b6000610830601283610730565b915061083b826107fa565b602082019050919050565b6000602082019050818103600083015261085f81610823565b9050919050565b7f4e487b7100000000000000000000000000000000000000000000000000000000600052604160045260246000fd5b7f4e487b7100000000000000000000000000000000000000000000000000000000600052602260045260246000fd5b600060028204905060018216806108dc57607f821691505b6020821081036108ef576108ee610895565b5b50919050565b60008190508160005260206000209050919050565b60006020601f8301049050919050565b600082821b905092915050565b6000600883026109577fffffffffffffffffffffffffffffffffffffffffffffffffffffffffffffffff8261091a565b610961868361091a565b95508019841693508086168417925050509392505050565b6000819050919050565b6000819050919050565b60006109a86109a361099e84610979565b610983565b610979565b9050919050565b6000819050919050565b6109c28361098d565b6109d66109ce826109af565b848454610927565b825550505050565b600090565b6109eb6109de565b6109f68184846109b9565b505050565b5b81811015610a1a57610a0f6000826109e3565b6001810190506109fc565b5050565b601f821115610a5f57610a30816108f5565b610a398461090a565b81016020851015610a48578190505b610a5c610a548561090a565b8301826109fb565b50505b505050565b600082821c905092915050565b6000610a8260001984600802610a64565b1980831691505092915050565b6000610a9b8383610a71565b9150826002028217905092915050565b610ab482610725565b67ffffffffffffffff811115610acd57610acc610866565b5b610ad782546108c4565b610ae2828285610a1e565b600060209050601f831160018114610b155760008415610b03578287015190505b610b0d8582610a8f565b865550610b75565b601f198416610b23866108f5565b60005b82811015610b4b57848901518255600182019150602085019450602081019050610b26565b86831015610b685784890151610b64601f891682610a71565b8355505b6001600288020188555050505b505050505050565b82818337600083830152505050565b6000610b988385610730565b9350610ba5838584610b7d565b610bae8361076b565b840190509392505050565b60006040820190508181036000830152610bd4818688610b8c565b90508181036020830152610be9818486610b8c565b905095945050505050565b7f4e6f742072656769737465726564000000000000000000000000000000000000600082015250565b6000610c2a600e83610730565b9150610c3582610bf4565b602082019050919050565b60006020820190508181036000830152610c5981610c1d565b905091905056fea264697066735822122094f4eeb7493f0228f9e2063256fc7be4cb55fbe3bbeeb71e067226cabb8488ca64736f6c634300081c0033",
  "linkReferences": {},
  "deployedLinkReferences": {}
}